:100000000C942A000C9441070C9447000C94470070
:100010000C9447000C9447000C9447000C94470044
:100020000C9447000C9447000C9447000C94470034
:100030000C9447000C9447000C9447000C94470024
:100040000C9447000C9447000C9447000C94470014
:100050000C94470011241FBECFE5D8E0DEBFCDBF12
:1000600016E0A0E6B0E0ECECFFE002C005900D92D7
:10007000A83DB107D9F726E0A8EDB6E001C01D9272
:10008000AE3EB207E1F70E94BD040C94E4070C9465
:10009000000014BA80E487B987E886B9089597B15B
:1000A000987F8770892B87B9369A3699FECF84B1AD
:1000B00095B1089560E080E00E94030380E690E03F
:1000C0000E94620361E080E00E94030381E790E008
:1000D0000E946203089563E080E00E9403038FE7BB
:1000E00090E00E94620364E080E00E94030389E8DC
:1000F00090E00E94620365E080E00E9403038FE7C6
:1001000090E00E9462030895CF93DF93EB01682F84
:100110006E7F6D5F817094E2899F802D1124885ECF
:100120000E9403032AE030E0CE01B9010E94650776
:10013000C82FCB01B9010E946507805D0E943E0374
:1001400080E38C0F0E943E0367E082E10E9403037C
:100150002AB53BB53695279536952795ABE7B4E19B
:100160000E94980796958795805D0E943E032AB568
:100170003BB5ADECBCEC0E949807AC015695479599
:1001800056954795569547959A010E9498079695DA
:10019000879596958795969587959C01220F331F95
:1001A000880F991F880F991F880F991F820F931F1F
:1001B0009A01281B390BC901805D0E943E034AB594
:1001C0005BB59A01ADECBCEC0E94980796958795BB
:1001D00096958795969587959C01220F331F880FDA
:1001E000991F880F991F880F991F820F931F9A01DB
:1001F000281B390BC901805D0E943E0367E082E441
:100200000E94030328B539B536952795369527956D
:10021000ABE7B4E10E94980796958795805D0E94B0
:100220003E0328B539B5ADECBCEC0E949807AC0193
:100230005695479556954795569547959A010E942C
:1002400098079695879596958795969587959C019D
:10025000220F331F880F991F880F991F880F991F2E
:10026000820F931F9A01281B390BC901805D0E94E0
:100270003E0348B559B59A01ADECBCEC0E94980715
:100280009695879596958795969587959C01220FCB
:10029000331F880F991F880F991F880F991F820F8E
:1002A000931F9A01281B390BC901805D0E943E03F0
:1002B000DF91CF91089563E080E00E9403038AE913
:1002C00090E00E94620364E080E00E9403038AEAF7
:1002D00090E00E94620366E080E00E94030384EBEA
:1002E00090E00E946203089563E080E00E940303AF
:1002F0008AE990E00E94620364E080E00E940303C8
:1003000083EC90E00E94620366E080E00E940303B9
:100310008FEC90E00E94620367E080E00E9403039C
:1003200083ED90E00E9462030895EF92FF920F9395
:100330001F93CF93DF937C018B0166E088E10E94DD
:10034000030397013695279536952795369527957A
:10035000A5ECB0E20E949807929582958F7089274C
:100360009F708927805D0E943E03970136952795EF
:1003700036952795ABE7B4E10E949807AC015695F6
:1003800047959A01ADECBCEC0E949807969587952D
:1003900096958795969587959C01220F331F880F18
:1003A000991F880F991F880F991F820F931F9A0119
:1003B000281B390BC901805D0E943E039701ADECFB
:1003C000BCEC0E949807EC01D695C795D695C795C9
:1003D000D695C7959E010E94980796958795969504
:1003E0008795969587959C01220F331F880F991F3B
:1003F000880F991F880F991F820F931F9E01281B3A
:10040000390BC901805D0E943E03CE01880F991F00
:10041000CC0FDD1FCC0FDD1FCC0FDD1FC80FD91F88
:10042000C7018C1B9D0B805D0E943E0367E088E145
:100430000E940303980136952795369527953695A2
:100440002795A5ECB0E20E949807929582958F704F
:1004500089279F708927805D0E943E039801369509
:10046000279536952795ABE7B4E10E949807AC0134
:10047000569547959A01ADECBCEC0E94980796956D
:10048000879596958795969587959C01220F331FA2
:10049000880F991F880F991F880F991F820F931F2C
:1004A0009A01281B390BC901805D0E943E03980107
:1004B000ADECBCEC0E949807EC01D695C795D6959B
:1004C000C795D695C7959E010E94980796958795E2
:1004D00096958795969587959C01220F331F880FD7
:1004E000991F880F991F880F991F820F931F9E01D4
:1004F000281B390BC901805D0E943E03CE01880F85
:10050000991FCC0FDD1FCC0FDD1FCC0FDD1FC80FD7
:10051000D91FC8018C1B9D0B805D0E943E03DF919B
:10052000CF911F910F91FF90EF900895A998AE9AE7
:10053000AF9AAF9827E030E090E0AC01022E02C005
:10054000559547950A94E2F740FF02C0AE9A01C064
:10055000AE98AF9AAF982150310978F7A99A0895CB
:10056000A998AE98AF9AAF9827E030E090E0AC0140
:10057000022E02C0559547950A94E2F740FF02C04B
:10058000AE9A01C0AE98AF9AAF982150310978F772
:10059000A99A089584B3836C84BBAF98A8982FE779
:1005A00088E391E0215080409040E1F700C00000D6
:1005B000A89AA9988FEC97E00197F1F700C0000086
:1005C000A99A8FEC97E00197F1F700C000008FE245
:1005D0000E94B00280E90E94B00286EA0E94B00246
:1005E00084EA0E94B0028FEA0E94B00280E40E9476
:1005F000B00280EB0E94B00280E10E94B00280E075
:100600000E94B0020895CF93C82F80EB860F0E94FE
:10061000B0028C2F8F7782958F7080610E94B0021C
:100620008C2F8F700E94B002CF910895CF93DF93EB
:1006300060E080E00E940303D9E007C080E00E94F0
:100640009602C150D9F7D15011F0C1E6F7CFDF9132
:10065000CF910895CF93DF9360E080E00E94030381
:10066000D9E007C08FEF0E949602C150D9F7D15050
:1006700011F0C0E6F7CFDF91CF9108950F931F934C
:10068000CF93DF9390E0EC01CC0FDD1FC80FD91F93
:10069000CC0FDD1FC952DF4F01968C01000F111FD7
:1006A000800F911F8C01000F111F09521F4F89915C
:1006B0000E949602C017D107D1F7DF91CF911F9109
:1006C0000F9108950F931F93CF93DF93FC01019037
:1006D0000020E9F73197E81BF90B1E161F0654F4AA
:1006E000EC018C010E0F1F1F89910E943E03C01761
:1006F000D107D1F7DF91CF911F910F9108950F93FB
:100700001F93CF93DF9384E00E944F00EC0185E0BC
:100710000E944F008C01BC01CE010E94950105365C
:1007200082E0180730F08AB59BB501969BBD8ABD63
:1007300008C00C39114028F48AB59BB501979BBDC0
:100740008ABDC53682E0D80730F088B599B50197E3
:1007500099BD88BD08C0CC39D14028F488B599B579
:10076000019699BD88BD4AB55BB526B537B5ADECE8
:10077000BCEC0E94980796958795969587959695D7
:1007800087950F968417950768F426B537B50E94AC
:1007900098079695879596958795969587950F9640
:1007A0009BBD8ABD4AB55BB526B537B5ADECBCEC93
:1007B0000E949807929582958F7089279F7089274C
:1007C000825491094817590770F426B537B50E942D
:1007D0009807929582958F7089279F7089278254F8
:1007E00091099BBD8ABD48B559B526B537B5ADEC65
:1007F000BCEC0E9498079695879596958795969557
:10080000879505968417950768F426B537B50E9435
:1008100098079695879596958795969587950596C9
:1008200099BD88BD48B559B526B537B5ADECBCEC1A
:100830000E949807929582958F7089279F708927CB
:10084000825491094817590770F426B537B50E94AC
:100850009807929582958F7089279F708927825477
:10086000910999BD88BD8FE493EC0197F1F700C021
:100870000000DF91CF911F910F9108950F931F9367
:10088000CF93DF93D82FCFE000E010E08D2F0E94B0
:100890004F00080F191FC150C9F79801A9E8B8E81F
:1008A0000E949807DC01B695A795B695A795B695D1
:1008B000A79524E630E00E94A7072FEF33E040E041
:1008C00050E00E94790784E690E0821B930BDF9151
:1008D000CF911F910F9108952FEF80E792E0215063
:1008E00080409040E1F700C000000E9449002FE7DF
:1008F00088E391E0215080409040E1F700C0000083
:100900000E9411052FE788E391E02150804090403C
:10091000E1F700C000000E943E072FE788E391E066
:10092000215080409040E1F700C000000E94CA02C0
:100930002FE788E391E0215080409040E1F700C02C
:1009400000000E942A032FEF84E39CE021508040A6
:100950009040E1F700C000000E9416032FE788E3F3
:1009600091E0215080409040E1F700C000000E94DB
:100970005A000E945B01789408951092D906109253
:10098000D8060E946C0426B537B5ADECBCEC0E94CD
:100990009807929582958F7089279F708927825436
:1009A00091099BBD8ABD86B597B59C01220F331F67
:1009B000880F991F880F991F880F991F280F391FBB
:1009C000A1E6B6EF0E949807880F892F881F990B20
:1009D0009195889799BD88BD0E94290581E08093F3
:1009E000D9068091D9069091D806981771F0809316
:1009F000D8060E9466052FE78AE196E021508040E4
:100A00009040E1F700C0000078948091D8068230D1
:100A100029F0833031F70E948305E3CF0E947F03E2
:100A2000E0CF81B3806381BB85EB99E097BD86BD44
:100A30001BBC1ABC19BC18BC8FB58F758FBD8EB589
:100A400082608EBD8FB582608FBD8EB588618EBD90
:100A500008958FB5806A8FBD08952FEF81EE94E0E1
:100A6000215080409040E1F700C000000E94160332
:100A70000E945A000E945B0108952FEF81EE94E0DE
:100A8000215080409040E1F700C000000E94160312
:100A90000E945A000E94740108952FEF81EE94E0A5
:100AA000215080409040E1F700C000000E941603F2
:100AB0000E945A000E946B002FEF84E39CE02150BB
:100AC00080409040E1F700C000000895CF93C82F08
:100AD0000E941603C23051F0C33071F0C13089F466
:100AE00081E08093D9060E942D050BC082E080939F
:100AF000D9060E943D0505C083E08093D9060E9477
:100B00004D05CF910895CF93DF9380E00E943E047E
:100B10009093ED068093EC0681E00E943E04909352
:100B2000DF068093DE0682E00E943E049093E90691
:100B30008093E80683E00E943E049093E106809350
:100B4000E0066091EC067091ED0680E00E94840062
:100B50006091DE067091DF0681E00E948400609162
:100B6000E8067091E90682E00E9484006091E00648
:100B70007091E10683E00E948400E091EC06F09120
:100B8000ED066091DE067091DF06AF01460F571F3C
:100B9000559547955093EB064093EA062091E80659
:100BA0003091E9068091E0069091E106A901480F95
:100BB000591F559547955093DB064093DA062E0F43
:100BC0003F1F359527953093DD062093DC06860F71
:100BD000971F959587959093E7068093E60662E0C8
:100BE0008AE20E9403038091EA069091EB06CAE034
:100BF000D0E0BE010E946507CB01BE010E946507DF
:100C0000805D0E943E038091EA069091EB06BE0152
:100C10000E946507805D0E943E0366E08AE20E94B2
:100C200003038091DA069091DB06BE010E946507FE
:100C3000CB01BE010E946507805D0E943E0380914A
:100C4000DA069091DB06BE010E946507805D0E9476
:100C50003E0364E086E00E9403038091DC069091ED
:100C6000DD06BE010E946507CB01BE010E9465073B
:100C7000805D0E943E038091DC069091DD06BE01FE
:100C80000E946507805D0E943E0364E08EE40E943E
:100C900003038091E6069091E706BE010E94650776
:100CA000CB01BE010E946507805D0E943E038091DA
:100CB000E6069091E706BE010E946507805D0E94EE
:100CC0003E038091EA069091EB062091DA0630917E
:100CD000DB06821B930B9093E3068093E206209140
:100CE000DC063091DD064091E6065091E706241BB4
:100CF000350B3093E5062093E4069C01992324F4F8
:100D000022273327281B390B2330310554F02AB50D
:100D10003BB56AE070E00E946507261B370B3BBDC0
:100D20002ABD8091E4069091E5069C01992324F464
:100D300022273327281B390B2330310554F028B5DF
:100D400039B56AE070E00E946507261B370B39BD94
:100D500028BD4AB55BB526B537B5ADECBCEC0E94F5
:100D600098079695879596958795969587950F966A
:100D70008417950768F426B537B50E9498079695AD
:100D8000879596958795969587950F969BBD8ABD75
:100D90004AB55BB526B537B5ADECBCEC0E949807FB
:100DA000929582958F7089279F7089278254910927
:100DB0004817590770F426B537B50E9498079295E1
:100DC00082958F7089279F708927825491099BBDD6
:100DD0008ABD48B559B526B537B5ADECBCEC0E9417
:100DE00098079695879596958795969587950596F4
:100DF0008417950768F426B537B50E94980796952D
:100E000087959695879596958795059699BD88BD02
:100E100048B559B526B537B5ADECBCEC0E9498077E
:100E2000929582958F7089279F70892782549109A6
:100E30004817590770F426B537B50E949807929560
:100E400082958F7089279F7089278254910999BD57
:100E500088BD2FE788E391E0215080409040E1F782
:100E600000C00000DF91CF9108958A98929A85B7CB
:100E70008C7F85BF8BB780648BBF08950E94350738
:100E800008951F920F920FB60F9211248F93F8942A
:100E90008091D906823041F0833051F0813061F485
:100EA00082E08093D9060BC083E08093D90607C007
:100EB00081E08093D90603C081E08093D9068F91A9
:100EC0000F900FBE0F901F90189597FB072E16F4EA
:100ED000009407D077FD09D00E94AE0707FC05D02B
:100EE0003EF4909581959F4F0895709561957F4F41
:100EF0000895052E97FB1EF400940E94900757FD5D
:100F000007D00E94C20707FC03D04EF40C94900750
:100F100050954095309521953F4F4F4F5F4F089525
:100F200090958095709561957F4F8F4F9F4F089555
:100F3000A29FB001B39FC001A39F700D811D11241A
:100F4000911DB29F700D811D1124911D08950E9465
:100F50009807B7FF0895821B930B0895AA1BBB1B2C
:100F600051E107C0AA1FBB1FA617B70710F0A61BA9
:100F7000B70B881F991F5A95A9F780959095BC01CA
:100F8000CD010895A1E21A2EAA1BBB1BFD010DC0C5
:100F9000AA1FBB1FEE1FFF1FA217B307E407F50729
:100FA00020F0A21BB30BE40BF50B661F771F881F05
:100FB000991F1A9469F760957095809590959B019B
:0C0FC000AC01BD01CF010895F894FFCFF3
:100FCC004175746F547261636B696E67204C445247
:100FDC0000202053636F7270696F6E495058002067
:100FEC002020202020207C7C003D3D3D3D3D3D3D92
:100FFC003D3D3D3D3D3D3D3D3D002D2073797374A0
:10100C00656D20697320696E200049444C45206D44
:10101C006F646500676F696E6720746F20736C6511
:10102C006570004D414E55414C206D6F6465004A12
:10103C00583A004A593A00000000000000006418B9
:10104C00046418003C4040207C000C3040300C0004
:10105C003C4030403C00003E1C080000041E1F1E9B
:10106C000400103C7C3C100020403E010200221485
:10107C000814220000382838000000103810000036
:10108C000000100000000878080000000015150A88
:10109C0000007F7F0909010010207F01010004047A
:1010AC0000011F0000191512000040605048440058
:1010BC000609090600000F020101000000011F01D2
:1010CC00000044444A4A510014741C171400514A3D
:1010DC004A444400000004040400007C54544400BE
:1010EC0008082A1C08007C007C447C0004027F0257
:1010FC00040010207F201000000000000000000001
:10110C006F000000000700070000147F147F14001C
:10111C000007041E000023130864620036495620A1
:10112C005000000007000000001C2241000000419C
:10113C00221C000014083E08140008083E08080091
:10114C00005030000000080808080800006060002B
:10115C0000002010080402003E5149453E000042A8
:10116C007F4000004261514946002141454B31000E
:10117C001814127F10002745454539003C4A49494F
:10118C00300001710905030036494949360006490A
:10119C0049291E00003636000000005636000000BB
:1011AC0008142241000014141414140000412214D9
:1011BC0008000201510906003E415D494E007E09BE
:1011CC0009097E007F49494936003E4141412200D0
:1011DC007F4141413E007F49494941007F0909094E
:1011EC0001003E4149497A007F0808087F00004110
:1011FC007F4100002040413F01007F081422410044
:10120C007F40404040007F020C027F007F040810AA
:10121C007F003E4141413E007F09090906003E41E5
:10122C0051215E007F091929460046494949310080
:10123C0001017F0101003F4040403F000F30403032
:10124C000F003F4030403F00631408146300070850
:10125C00700807006151494543003C4A49291E006A
:10126C0002040810200000417F000000040201026B
:10127C0004004040404040000000030400002054A3
:10128C00545478007F484444380038444444200087
:10129C00384444487F00385454541800087E0901DF
:1012AC0002000C5252523E007F08040478000044A5
:1012BC007D4000002040443D0000007F1028440089
:1012CC0000417F4000007C04180478007C08040472
:1012DC0078003844444438007C1414140800081472
:1012EC0014187C007C080404080048545454200052
:1012FC00043F444020003C4040207C001C20402007
:10130C001C003C4030403C004428102844000C5049
:10131C0050503C004464544C440000083641410099
:10132C0000007F0000004141360800000402040860
:10133C0004007F6B6B6B7F00007C447C000000081A
:10134C007C00000000645448000000445428000055
:10135C00001C10780000005C5424000000785474C9
:10136C0000000064140C0000007C547C0000005C45
:10137C00543C000078242625780078252624780013
:10138C00702A292A70007825242578002054565577
:10139C007800205556547800205655567800205524
:1013AC00545578007C54565544007C555654440092
:1013BC007C56555644007C5554554400385456556B
:1013CC0018003855565418003856555618003855CC
:1013DC005455180000447E45000000457E44000032
:1013EC0000467D46000000457C45000000487A41DF
:1013FC00000000497A400000004A79420000004990
:10140C007841000038444645380038454644380099
:10141C0038464546380038454445380030484A4936
:10142C00300030494A483000304A494A300030498F
:10143C00484930003C4042413C003C4142403C0069
:10144C003C4241423C003C4140413C003C4042213A
:10145C007C003C4142207C003842412278003C41D7
:10146C0040217C004E5171110A0058646424100014
:10147C007C0A11227D007812090A71000000040216
:10148C0001000102040000000002000200003048CC
:10149C004540200000007B000000384444384400E4
:1014AC00403E49493600080408700C006050485012
:1014BC00600020525559300038545454000000003C
:1014CC007F4100004022141860007C20201C20006A
:1014DC00443C047C4400403C12120C0041635549CE
:1014EC0041003844443C040008043C4424000814E3
:1014FC007F1408004E7101714E00452911294500D9
:10150C000D5151513D000000050205004000400006
:10151C00400000081C3E00001C1C1C000000007059
:10152C0008070000000808080000001D151700003F
:10153C000007050700000011150A0000000000005C
:10154C000000043C412000007C16151608002116F2
:10155C00083442007F091D0103003854541408005C
:10156C0000007C4040007F0E1C387F0041225D2231
:10157C001C001C3E1C0800007F7F7F7F7F00777B58
:10158C00017B77007F4375437F007F6F55437F005E
:10159C0040404040400044425F424400405E455E53
:1015AC0040004048555E400000040810200003072E
:1015BC000E1C38000103070F1F007C787060400080
:1015CC0008081C221C00001C221C00000200080041
:1015DC002000043E3F3E0400103E7E3E1000552A83
:1015EC00552A5500242A7F2A1200041E1F1E0400AF
:1015FC0000000000000000000000000000000000DF
:10160C0000000000000000000000000000000000CE
:10161C0000000000000000000000000000000000BE
:10162C0000000000000000000000000000000000AE
:08163C000000000000000000A6
:00000001FF
