S016000053756E547261636B696E673332412E73726563FF
S11300000C942A000C944A000C9447000C9447006A
S11300100C9447000C9447000C9447000C94470040
S11300200C9447000C9447000C9447000C94470030
S11300300C9447000C9447000C9447000C94470020
S11300400C9447000C9447000C9447000C94470010
S11300500C94470011241FBECFE5D8E0DEBFCDBF0E
S113006010E0A0E6B0E0E0EEF0E002C005900D92F2
S1130070A036B107D9F720E0A0E6B0E001C01D9298
S1130080A236B207E1F70E9449000C946E000C946A
S11300900000FFCF1F920F920FB60F9211248F937F
S11300A0F89480916100823041F0833051F08130C6
S11300B061F482E0809361000BC083E0809361006F
S11300C007C081E08093610003C081E080936100F8
S11300D08F910F900FBE0F901F901895F894FFCF3B
S9030000FC
