S016000053756E547261636B696E673332412E73726563FF
S11300000C942A000C949B0A0C9447000C9447000F
S11300100C9447000C9447000C9447000C94470040
S11300200C9447000C9447000C9447000C94470030
S11300300C9447000C9447000C9447000C94470020
S11300400C9447000C9447000C9447000C94470010
S11300500C94470011241FBECFE5D8E0DEBFCDBF0E
S113006016E0A0E6B0E0E8EAF6E102C005900D92E1
S1130070AC3FB107D9F727E0ACEFB6E001C01D9261
S1130080A231B207E1F70E94C1070C94520B0C9401
S1130090000014BA80E487B987E886B9089597B157
S11300A0987F8770892B87B9369A3699FECF84B1A9
S11300B095B1089586E00E944F009C01A0E2BEE441
S11300C00E94FB0A2FEF33E040E050E00E94DC0A7C
S11300D044275527AFECB3E00E94110B28EE33E020
S11300E040E050E00E94DC0AC901089587E00E94C4
S11300F04F009C01A0E2BEE40E94FB0A2FEF33E014
S113010040E050E00E94DC0A44275527AFECB3E0FE
S11301100E94110B28EE33E040E050E00E94DC0A1C
S1130120C901089560E080E00E94F50580E690E052
S11301300E94540661E080E00E94F50581E790E0AA
S11301400E945406089563E080E00E94F5058FE75D
S113015090E00E94540664E080E00E94F50589E87E
S113016090E00E94540665E080E00E94F5058FE768
S113017090E00E9454060895CF93DF93EB01682F1B
S11301806E7F6D5F817094E2899F802D1124885E5B
S11301900E94F5052AE030E0CE01B9010E94C80AA8
S11301A0C82FCB01B9010E94C80A805D0E943006A5
S11301B080E38C0F0E94300667E082E10E94F5051F
S11301C02AB53BB53695279536952795ABE7B4E127
S11301D00E94FB0A96958795805D0E9430062AB599
S11301E03BB5ADECBCEC0E94FB0AAC0156954795BF
S11301F056954795569547959A010E94FB0A969500
S1130200879596958795969587959C01220F331F20
S1130210880F991F880F991F880F991F820F931FAA
S11302209A01281B390BC901805D0E9430064AB52A
S11302305BB59A01ADECBCEC0E94FB0A96958795E0
S113024096958795969587959C01220F331F880F65
S1130250991F880F991F880F991F820F931F9A0166
S1130260281B390BC901805D0E94300667E082E4D7
S11302700E94F50528B539B5369527953695279505
S1130280ABE7B4E10E94FB0A96958795805D0E94D6
S1130290300628B539B5ADECBCEC0E94FB0AAC01C4
S11302A05695479556954795569547959A010E94B8
S11302B0FB0A9695879596958795969587959C01C3
S11302C0220F331F880F991F880F991F880F991FBA
S11302D0820F931F9A01281B390BC901805D0E946C
S11302E0300648B559B59A01ADECBCEC0E94FB0A46
S11302F09695879596958795969587959C01220F57
S1130300331F880F991F880F991F880F991F820F19
S1130310931F9A01281B390BC901805D0E94300686
S1130320DF91CF91089563E080E00E94F5058AE9AA
S113033090E00E94540664E080E00E94F5058AEA99
S113034090E00E94540666E080E00E94F50584EB8C
S113035090E00E945406089563E080E00E94F50551
S11303608AE990E00E94540664E080E00E94F5056A
S113037083EC90E00E94540666E080E00E94F5055C
S11303808FEC90E00E94540666E086E30E94F50537
S113039083ED90E00E94540667E080E00E94F5053A
S11303A086ED90E00E94540667E086E30E94F5051E
S11303B08AED90E00E9454060895EF92FF920F9305
S11303C01F93CF93DF937C018B0166E088E10E9449
S11303D0F5059701369527953695279536952795F2
S11303E0A5ECB0E20E94FB0A929582958F70892752
S11303F09F708927805D0E94300697013695279566
S113040036952795ABE7B4E10E94FB0AAC015695FB
S113041047959A01ADECBCEC0E94FB0A9695879532
S113042096958795969587959C01220F331F880F83
S1130430991F880F991F880F991F820F931F9A0184
S1130440281B390BC901805D0E9430069701ADEC71
S1130450BCEC0E94FB0AEC01D695C795D695C795CE
S1130460D695C7959E010E94FB0A96958795969509
S11304708795969587959C01220F331F880F991FA6
S1130480880F991F880F991F820F931F9E01281BA5
S1130490390BC901805D0E943006CE01880F991F77
S11304A0CC0FDD1FCC0FDD1FCC0FDD1FC80FD91FF4
S11304B0C7018C1B9D0B805D0E94300666E088E4BA
S11304C00E94F50528B539B53695279536952795B3
S11304D036952795A5ECB0E20E94FB0A9295829589
S11304E08F7089279F708927805D0E94300628B508
S11304F039B53695279536952795ABE7B4E10E9433
S1130500FB0AAC01569547959A01ADECBCEC0E94F0
S1130510FB0A9695879596958795969587959C0160
S1130520220F331F880F991F880F991F880F991F57
S1130530820F931F9A01281B390BC901805D0E9409
S1130540300628B539B5ADECBCEC0E94FB0AAC0111
S11305505695479556954795569547959A010E9405
S1130560FB0A9695879596958795969587959C0110
S1130570220F331F880F991F880F991F880F991F07
S1130580820F931F9A01281B390BC901805D0E94B9
S1130590300648B559B59A01ADECBCEC0E94FB0A93
S11305A09695879596958795969587959C01220FA4
S11305B0331F880F991F880F991F880F991F820F67
S11305C0931F9A01281B390BC901805D0E943006D4
S11305D067E088E10E94F5059801369527953695E0
S11305E0279536952795A5ECB0E20E94FB0A9295D3
S11305F082958F7089279F708927805D0E943006BD
S113060098013695279536952795ABE7B4E10E9476
S1130610FB0AAC01569547959A01ADECBCEC0E94DF
S1130620FB0A9695879596958795969587959C014F
S1130630220F331F880F991F880F991F880F991F46
S1130640820F931F9A01281B390BC901805D0E94F8
S113065030069801ADECBCEC0E94FB0AEC01D69587
S1130660C795D695C795D695C7959E010E94FB0A56
S11306709695879596958795969587959C01220FD3
S1130680331F880F991F880F991F880F991F820F96
S1130690931F9E01281B390BC901805D0E943006FF
S11306A0CE01880F991FCC0FDD1FCC0FDD1FCC0F9F
S11306B0DD1FC80FD91FC8018C1B9D0B805D0E94D4
S11306C0300667E088E40E94F5052AB53BB5369507
S11306D027953695279536952795A5ECB0E20E9487
S11306E0FB0A929582958F7089279F708927805D78
S11306F00E9430062AB53BB5369527953695279541
S1130700ABE7B4E10E94FB0AAC01569547959A0108
S1130710ADECBCEC0E94FB0A96958795969587955F
S1130720969587959C01220F331F880F991F880F78
S1130730991F880F991F820F931F9A01281B390B49
S1130740C901805D0E9430062AB53BB5ADECBCEC16
S11307500E94FB0AAC0156954795569547955695C8
S113076047959A010E94FB0A9695879596958795D9
S1130770969587959C01220F331F880F991F880F28
S1130780991F880F991F820F931F9A01281B390BF9
S1130790C901805D0E9430064AB55BB59A01ADEC93
S11307A0BCEC0E94FB0A969587959695879596953D
S11307B087959C01220F331F880F991F880F991F5B
S11307C0880F991F820F931F9A01281B390BC901A7
S11307D0805D0E943006DF91CF911F910F91FF90B1
S11307E0EF90089563E080E00E94F5058AE990E0C7
S11307F00E94540664E080E00E94F5058DED90E0CF
S11308000E94540666E080E00E94F5058DEE90E0BB
S11308100E94540666E080E50E94F50583EF90E0AF
S11308200E94540667E080E00E94F50585EF90E0A1
S11308300E94540667E080E50E94F50583EF90E08E
S11308400E9454060895EF92FF920F931F93CF9343
S1130850DF937C018B0166E08AE20E94F505970133
S1130860329522952F7023273F702327A7E4B3E006
S11308700E94FB0A969587959695879596958795F8
S1130880805D0E9430069701369527953695279509
S113089036952795A5ECB0E20E94FB0AAC0152956F
S11308A042954F7045275F7045279A01ADECBCEC2B
S11308B00E94FB0A969587959695879596958795B8
S11308C09C01220F331F880F991F880F991F880FCF
S11308D0991F820F931F9A01281B390BC901805D50
S11308E00E9430068EE20E943006970136952795C5
S11308F036952795ABE7B4E10E94FB0AAC01569507
S113090047959A01ADECBCEC0E94FB0A969587953D
S113091096958795969587959C01220F331F880F8E
S1130920991F880F991F880F991F820F931F9A018F
S1130930281B390BC901805D0E9430069701ADEC7C
S1130940BCEC0E94FB0AEC01D695C795D695C795D9
S1130950D695C7959E010E94FB0A96958795969514
S11309608795969587959C01220F331F880F991FB1
S1130970880F991F880F991F820F931F9E01281BB0
S1130980390BC901805D0E943006CE01880F991F82
S1130990CC0FDD1FCC0FDD1FCC0FDD1FC80FD91FFF
S11309A0C7018C1B9D0B805D0E94300667E08AE2C4
S11309B00E94F5059801329522952F7023273F70E8
S11309C02327A7E4B3E00E94FB0A969587959695A2
S11309D0879596958795805D0E9430069801369597
S11309E027953695279536952795A5ECB0E20E9474
S11309F0FB0AAC01529542954F7045275F7045271D
S1130A009A01ADECBCEC0E94FB0A969587959695ED
S1130A108795969587959C01220F331F880F991F00
S1130A20880F991F880F991F820F931F9A01281B03
S1130A30390BC901805D0E9430068EE20E943006A7
S1130A4098013695279536952795ABE7B4E10E9432
S1130A50FB0AAC01569547959A01ADECBCEC0E949B
S1130A60FB0A9695879596958795969587959C010B
S1130A70220F331F880F991F880F991F880F991F02
S1130A80820F931F9A01281B390BC901805D0E94B4
S1130A9030069801ADECBCEC0E94FB0AEC01D69543
S1130AA0C795D695C795D695C7959E010E94FB0A12
S1130AB09695879596958795969587959C01220F8F
S1130AC0331F880F991F880F991F880F991F820F52
S1130AD0931F9E01281B390BC901805D0E943006BB
S1130AE0CE01880F991FCC0FDD1FCC0FDD1FCC0F5B
S1130AF0DD1FC80FD91FC8018C1B9D0B805D0E9490
S1130B003006DF91CF911F910F91FF90EF900895E0
S1130B10A998AE9AAF9AAF9827E030E090E0AC0184
S1130B20022E02C0559547950A94E2F740FF02C091
S1130B30AE9A01C0AE98AF9AAF982150310978F7B8
S1130B40A99A0895A998AE98AF9AAF9827E030E093
S1130B5090E0AC01022E02C0559547950A94E2F745
S1130B6040FF02C0AE9A01C0AE98AF9AAF98215030
S1130B70310978F7A99A089584B3836C84BBAF983C
S1130B80A8982FE788E391E0215080409040E1F756
S1130B9000C00000A89AA9988FEC97E00197F1F79C
S1130BA000C00000A99A8FEC97E00197F1F700C00C
S1130BB000008FE20E94A20580E90E94A20586EA55
S1130BC00E94A20584EA0E94A2058FEA0E94A2055F
S1130BD080E40E94A20580EB0E94A20580E10E94AD
S1130BE0A20580E00E94A2050895CF93C82F80EB50
S1130BF0860F0E94A2058C2F8F7782958F7080615B
S1130C000E94A2058C2F8F700E94A205CF91089597
S1130C10CF93DF9360E080E00E94F505D9E007C040
S1130C2080E00E948805C150D9F7D15011F0C1E687
S1130C30F7CFDF91CF910895CF93DF9360E080E009
S1130C400E94F505D9E007C08FEF0E948805C150C6
S1130C50D9F7D15011F0C0E6F7CFDF91CF910895C5
S1130C600F931F93CF93DF9390E0EC01CC0FDD1F24
S1130C70C80FD91FCC0FDD1FC550DF4F01968C0163
S1130C80000F111F800F911F8C01000F111F0550C1
S1130C901F4F89910E948805C017D107D1F7DF91B2
S1130CA0CF911F910F9108950F931F93CF93DF93CB
S1130CB0FC0101900020E9F73197E81BF90B1E169F
S1130CC01F0654F4EC018C010E0F1F1F89910E9422
S1130CD03006C017D107D1F7DF91CF911F910F9143
S1130CE008950F931F93CF93DF9384E00E944F00E6
S1130CF0EC0185E00E944F008C01BC01CE010E94F2
S1130D00DD01053682E0180730F08AB59BB50196FF
S1130D109BBD8ABD08C00C39114028F48AB59BB527
S1130D2001979BBD8ABDC53682E0D80730F088B5EF
S1130D3099B5019799BD88BD08C0CC39D14028F434
S1130D4088B599B5019699BD88BD4AB55BB586B598
S1130D5097B59C01220F331F880F991F880F991F85
S1130D60880F991F280F391FA1E6B6EF0E94FB0ACE
S1130D70880F892F881F990B919588978417950759
S1130D80B8F486B597B59C01220F331F880F991FBD
S1130D90880F991F880F991F280F391F0E94FB0A7B
S1130DA0880F892F881F990B919588979BBD8ABDC1
S1130DB04AB55BB526B537B5ADECBCEC0E94FB0A71
S1130DC0929582958F7089279F7089278154910904
S1130DD04817590770F426B537B50E94FB0A929557
S1130DE082958F7089279F708927815491099BBDB3
S1130DF08ABD48B559B526B537B5ADECBCEC0E94F3
S1130E00FB0A969587959695879596958795059768
S1130E108417950768F426B537B50E94FB0A9695A2
S1130E2087959695879596958795059799BD88BDDD
S1130E3048B559B526B537B5ADECBCEC0E94FB0AF4
S1130E40929582958F7089279F708927CC97481730
S1130E50590768F426B537B50E94FB0A9295829526
S1130E608F7089279F708927CC9799BD88BD8FE49F
S1130E7093EC0197F1F700C00000DF91CF911F912F
S1130E800F9108950F931F93CF93DF93D82FCFE043
S1130E9000E010E08D2F0E944F00080F191FC15071
S1130EA0C9F79801A9E8B8E80E94FB0ADC01B695E5
S1130EB0A795B695A795B695A79524E630E00E9428
S1130EC00A0B2FEF33E040E050E00E94DC0A84E696
S1130ED090E0821B930BDF91CF911F910F910895A6
S1130EE02FEF80E792E0215080409040E1F700C06E
S1130EF000000E9449002FE788E391E021508040E0
S1130F009040E1F700C000000E9432082FE788E318
S1130F1091E0215080409040E1F700C000000E9421
S1130F20980A2FE788E391E0215080409040E1F750
S1130F3000C000000E94BC052FE788E391E0215027
S1130F4080409040E1F700C000000E941C062FEF93
S1130F5084E39CE0215080409040E1F700C0000011
S1130F600E9408062FE788E391E0215080409040DA
S1130F70E1F700C000000E9492000E94930178945F
S1130F8008951092FD061092FC060E94700726B583
S1130F9037B5ADECBCEC0E94FB0A929582958F703C
S1130FA089279F708927815491099BBD8ABD86B585
S1130FB097B59C01220F331F880F991F880F991F23
S1130FC0880F991F280F391FA1E6B6EF0E94FB0A6C
S1130FD0880F892F881F990B9195859799BD88BD96
S1130FE00E944A0881E08093FD068091FD0690915D
S1130FF0FC06981771F08093FC060E9497082FE76F
S11310008AE196E0215080409040E1F700C0000062
S113101078948091FC06833029F0843049F0823042
S113102021F703C00E94BF08E0CF0E947106DDCF04
S11310300E941B08DACFCF93DF930E945A00EC0181
S11310400E947600BC01CE010E9423042FEF80E7AA
S113105092E0215080409040E1F700C00000DF9111
S1131060CF91089581B3806381BB83EC99E097BDF0
S113107086BD1BBC1ABC19BC18BC8FB58F758FBD3F
S11310808EB583608EBD8FB582608FBD8EB588614D
S11310908EBD08958FB5806A8FBD08952FEF81EEC0
S11310A094E0215080409040E1F700C000000E948D
S11310B008060E9492000E94930108952FEF81EE8A
S11310C094E0215080409040E1F700C000000E946D
S11310D008060E9492000E94AC0108952FEF81EE51
S11310E094E0215080409040E1F700C000000E944D
S11310F008060E9492000E94A3002FEF84E39CE064
S1131100215080409040E1F700C0000008952FEF87
S113111081EE94E0215080409040E1F700C000004F
S11311200E9408060E9492000E94F2030895CF9341
S1131130C82F0E940806C23079F018F4C13031F08B
S11311401CC0C33079F0C43099F017C081E080939B
S1131150FD060E944E0811C082E08093FD060E94A5
S11311605E080BC083E08093FD060E946E0805C0F4
S113117084E08093FD060E948708CF910895CF9361
S1131180DF9380E00E944207909311078093100739
S113119081E00E944207909303078093020782E054
S11311A00E94420790930D0780930C0783E00E94EE
S11311B0420790930507809304076091100770918C
S11311C0110780E00E94BC00609102077091030740
S11311D081E00E94BC0060910C0770910D0782E0D1
S11311E00E94BC00609104077091050783E00E948F
S11311F0BC00E0911007F091110760910207709113
S11312000307AF01460F571F5595479550930F0796
S113121040930E0720910C0730910D07809104072D
S113122090910507A901480F591F5595479550936B
S1131230FF064093FE062E0F3F1F359527953093EA
S1131240010720930007860F971F95958795909324
S11312500B0780930A0762E08AE20E94F5058091F9
S11312600E0790910F07CAE0D0E0BE010E94C80AA1
S1131270CB01BE010E94C80A805D0E9430068091A5
S11312800E0790910F07BE010E94C80A805D0E945C
S1131290300666E08AE20E94F5058091FE06909190
S11312A0FF06BE010E94C80ACB01BE010E94C80A03
S11312B0805D0E9430068091FE069091FF06BE017B
S11312C00E94C80A805D0E94300664E086E00E94A5
S11312D0F5058091000790910107BE010E94C80A9C
S11312E0CB01BE010E94C80A805D0E943006809135
S11312F0000790910107BE010E94C80A805D0E9408
S1131300300664E08EE40E94F50580910A0790910E
S11313100B07BE010E94C80ACB01BE010E94C80A85
S1131320805D0E94300680910A0790910B07BE01F0
S11313300E94C80A805D0E94300680910E07909139
S11313400F072091FE063091FF06821B930B9093AA
S11313500707809306072091000730910107409109
S11313600A0750910B07241B350B30930907209370
S113137008079C01992324F422273327281B390BBF
S11313802330310584F04AB55BB59C01992314F4EC
S11313902D5F3F4F3595279535952795CA01821BBB
S11313A0930B9BBD8ABD80910807909109079C010E
S11313B0992324F422273327281B390B23303105A2
S11313C084F048B559B59C01992314F42D5F3F4F1F
S11313D03595279535952795CA01821B930B99BDA1
S11313E088BD4AB55BB586B597B59C01220F331FFE
S11313F0880F991F880F991F880F991F280F391F6D
S1131400A1E6B6EF0E94FB0A880F892F881F990B6B
S11314109195889784179507B8F486B597B59C017C
S1131420220F331F880F991F880F991F880F991F48
S1131430280F391F0E94FB0A880F892F881F990BD8
S1131440919588979BBD8ABD4AB55BB526B537B5DE
S1131450ADECBCEC0E94FB0A929582958F708927B3
S11314609F708927815491094817590770F426B54C
S113147037B50E94FB0A929582958F7089279F70D9
S11314808927815491099BBD8ABD48B559B526B5B4
S113149037B5ADECBCEC0E94FB0A96958795969502
S11314A087959695879505978417950768F426B5CB
S11314B037B50E94FB0A96958795969587959695DC
S11314C08795059799BD88BD48B559B526B537B5F3
S11314D0ADECBCEC0E94FB0A929582958F70892733
S11314E09F708927CC974817590768F426B537B5F4
S11314F00E94FB0A929582958F7089279F70892795
S1131500CC9799BD88BD2FEF80E792E021508040B1
S11315109040E1F700C00000DF91CF9108958A98D0
S1131520929A85B78C7F85BF8BB780648BBF0895F3
S11315300E948F0A08951F920F920FB60F921124E2
S11315408F93F8948091FD06823069F018F481300D
S113155031F015C0833059F0843069F010C082E056
S11315608093FD060FC083E08093FD060BC084E0EA
S11315708093FD0607C081E08093FD0603C081E0EF
S11315808093FD068F910F900FBE0F901F901895BA
S113159097FB072E16F4009407D077FD09D00E941C
S11315A01C0B07FC05D03EF4909581959F4F089540
S11315B0709561957F4F0895052E97FB1EF4009456
S11315C00E94F30A57FD07D00E94300B07FC03D09A
S11315D04EF40C94F30A50954095309521953F4F65
S11315E04F4F5F4F089590958095709561957F4F0B
S11315F08F4F9F4F0895A29FB001B39FC001A39F37
S1131600700D811D1124911DB29F700D811D112437
S1131610911D08950E94FB0AB7FF0895821B930B46
S113162008950E94FB0AA59F900DB49F900DA49F5E
S1131630800D911D11240895AA1BBB1B51E107C005
S1131640AA1FBB1FA617B70710F0A61BB70B881F4E
S1131650991F5A95A9F780959095BC01CD010895DD
S1131660A1E21A2EAA1BBB1BFD010DC0AA1FBB1FA2
S1131670EE1FFF1FA217B307E407F50720F0A21B14
S1131680B30BE40BF50B661F771F881F991F1A9481
S113169069F760957095809590959B01AC01BD01AB
S10B16A0CF010895F894FFCF77
S11316A84175746F547261636B696E67204C445260
S11316B800202053636F7270696F6E495058002080
S11316C82020202020207C7C003D3D3D3D3D3D3DAB
S11316D83D3D3D3D3D3D3D3D3D002D2073797374B9
S11316E8656D20697320696E200049444C45206D5E
S11316F86F646500676F696E6720746F20736C652B
S11317086570004D414E55414C206D6F6465004A2B
S1131718583A00423A004A593A00413A004D4F4E6D
S113172849544F52494E47206D6F646500566261B3
S1131738743A005600566368723A000000000000CC
S113174800006418046418003C4040207C000C30FD
S113175840300C003C4030403C00003E1C08000077
S1131768041E1F1E0400103C7C3C100020403E0157
S1131778020022140814220000382838000000103F
S1131788381000000000100000000878080000006D
S11317980015150A00007F7F0909010010207F0148
S11317A80100040400011F00001915120000406024
S11317B8504844000609090600000F020101000010
S11317C800011F01000044444A4A510014741C17C4
S11317D81400514A4A444400000004040400007CF4
S11317E85454440008082A1C08007C007C447C00EB
S11317F804027F02040010207F2010000000000073
S1131808000000006F000000000700070000147FBC
S1131818147F14000007041E0000231308646200E8
S1131828364956205000000007000000001C2241E1
S113183800000041221C000014083E081400080897
S11318483E08080000503000000008080808080096
S11318580060600000002010080402003E51494561
S11318683E0000427F400000426151494600214148
S1131878454B31001814127F10002745454539009F
S11318883C4A494930000171090503003649494970
S11318983600064949291E00003636000000005665
S11318A83600000008142241000014141414140013
S11318B80041221408000201510906003E415D4915
S11318C84E007E0909097E007F49494936003E4198
S11318D8414122007F4141413E007F49494941003D
S11318E87F09090901003E4149497A007F0808082F
S11318F87F0000417F4100002040413F01007F08F4
S1131908142241007F40404040007F020C027F00C7
S11319187F0408107F003E4141413E007F090909C8
S113192806003E4151215E007F09192946004649B7
S11319384949310001017F0101003F4040403F0017
S11319480F3040300F003F4030403F00631408140C
S113195863000708700807006151494543003C4A81
S113196849291E0002040810200000417F000000DD
S11319780402010204004040404040000000030407
S113198800002054545478007F48444438003844B4
S113199844442000384444487F00385454541800C0
S11319A8087E090102000C5252523E007F080404CA
S11319B8780000447D4000002040443D0000007F42
S11319C81028440000417F4000007C04180478007B
S11319D87C08040478003844444438007C14141403
S11319E80800081414187C007C08040408004854EF
S11319F854542000043F444020003C4040207C00D4
S1131A081C2040201C003C4030403C004428102846
S1131A1844000C5050503C004464544C44000008AA
S1131A283641410000007F000000414136080000B3
S1131A380402040804007F6B6B6B7F00007C447C09
S1131A48000000087C0000000064544800000044C2
S1131A5854280000001C10780000005C5424000086
S1131A680078547400000064140C0000007C547C5A
S1131A780000005C543C0000782426257800782572
S1131A8826247800702A292A7000782524257800CD
S1131A9820545655780020555654780020565556EB
S1131AA878002055545578007C54565544007C558C
S1131AB8565444007C56555644007C5554554400AD
S1131AC83854565518003855565418003856555633
S1131AD8180038555455180000447E450000004548
S1131AE87E44000000467D46000000457C45000019
S1131AF800487A41000000497A400000004A7942CF
S1131B08000000497841000038444645380038450B
S1131B184644380038464546380038454445380078
S1131B2830484A49300030494A483000304A494A26
S1131B3830003049484930003C4042413C003C4177
S1131B4842403C003C4241423C003C4140413C0054
S1131B583C4042217C003C4142207C0038424122E6
S1131B6878003C4140217C004E5171110A005864B0
S1131B78642410007C0A11227D007812090A71007D
S1131B880000040201000102040000000002000237
S1131B98000030484540200000007B000000384425
S1131BA844384400403E49493600080408700C0093
S1131BB860504850600020525559300038545454ED
S1131BC8000000007F4100004022141860007C20BF
S1131BD8201C2000443C047C4400403C12120C00AD
S1131BE84163554941003844443C040008043C44DA
S1131BF8240008147F1408004E7101714E00452911
S1131C08112945000D5151513D0000000502050000
S1131C1840004000400000081C3E00001C1C1C0042
S1131C280000007008070000000808080000001DF4
S1131C38151700000007050700000011150A000029
S1131C48000000000000043C412000007C1615162A
S1131C5808002116083442007F091D010300385486
S1131C685414080000007C4040007F0E1C387F009C
S1131C7841225D221C001C3E1C0800007F7F7F7FE0
S1131C887F00777B017B77007F4375437F007F6FFD
S1131C9855437F0040404040400044425F42440076
S1131CA8405E455E40004048555E40000004081010
S1131CB8200003070E1C38000103070F1F007C785F
S1131CC87060400008081C221C00001C221C000034
S1131CD8020008002000043E3F3E0400103E7E3E01
S1131CE81000552A552A5500242A7F2A1200041E5A
S1131CF81F1E040000000000000000000000000097
S1131D0800000000000000000000000000000000C7
S1131D1800000000000000000000000000000000B7
S1131D2800000000000000000000000000000000A7
S10F1D380000000000000000000000009B
S9030000FC
