S016000053756E547261636B696E673332412E73726563FF
S11300000C942A000C94DA090C9447000C944700D1
S11300100C9447000C9447000C9447000C94470040
S11300200C9447000C9447000C9447000C94470030
S11300300C9447000C9447000C9447000C94470020
S11300400C9447000C9447000C9447000C94470010
S11300500C94470011241FBECFE5D8E0DEBFCDBF0E
S113006016E0A0E6B0E0E6E2F5E102C005900D92EC
S1130070AC3FB107D9F727E0ACEFB6E001C01D9261
S1130080A331B207E1F70E9457070C94910A0C942C
S113009000001ABA80E487B987E886B9089597B151
S11300A0987F8770892B87B9369A3699FECF84B1A9
S11300B095B1089586E00E944F009C01A0E2BEE441
S11300C00E943A0A2FEF33E040E050E00E941B0AFE
S11300D044275527AFECB3E00E94500A28EE33E0E2
S11300E040E050E00E941B0AC901089587E00E9485
S11300F04F009C01A0E2BEE40E943A0A2FEF33E0D5
S113010040E050E00E941B0A44275527AFECB3E0BF
S11301100E94500A28EE33E040E050E00E941B0A9F
S1130120C901089560E080E00E94F50580E690E052
S11301300E94540661E080E00E94F50581E790E0AA
S11301400E945406089563E080E00E94F5058FE75D
S113015090E00E94540664E080E00E94F50589E87E
S113016090E00E94540665E080E00E94F5058FE768
S113017090E00E9454060895CF93DF93EB01682F1B
S11301806E7F6D5F817094E2899F802D1124885E5B
S11301900E94F5052AE030E0CE01B9010E94070A69
S11301A0C82FCB01B9010E94070A805D0E94300666
S11301B080E38C0F0E94300667E082E10E94F5051F
S11301C02AB53BB53695279536952795ABE7B4E127
S11301D00E943A0A96958795805D0E9430062AB55A
S11301E03BB5ADECBCEC0E943A0AAC015695479580
S11301F056954795569547959A010E943A0A9695C1
S1130200879596958795969587959C01220F331F20
S1130210880F991F880F991F880F991F820F931FAA
S11302209A01281B390BC901805D0E9430064AB52A
S11302305BB59A01ADECBCEC0E943A0A96958795A1
S113024096958795969587959C01220F331F880F65
S1130250991F880F991F880F991F820F931F9A0166
S1130260281B390BC901805D0E94300667E082E4D7
S11302700E94F50528B539B5369527953695279505
S1130280ABE7B4E10E943A0A96958795805D0E9497
S1130290300628B539B5ADECBCEC0E943A0AAC0185
S11302A05695479556954795569547959A010E94B8
S11302B03A0A9695879596958795969587959C0184
S11302C0220F331F880F991F880F991F880F991FBA
S11302D0820F931F9A01281B390BC901805D0E946C
S11302E0300648B559B59A01ADECBCEC0E943A0A07
S11302F09695879596958795969587959C01220F57
S1130300331F880F991F880F991F880F991F820F19
S1130310931F9A01281B390BC901805D0E94300686
S1130320DF91CF91089563E080E00E94F5058AE9AA
S113033090E00E94540664E080E00E94F5058AEA99
S113034090E00E94540666E080E00E94F50584EB8C
S113035090E00E945406089563E080E00E94F50551
S11303608AE990E00E94540664E080E00E94F5056A
S113037083EC90E00E94540666E080E00E94F5055C
S11303808FEC90E00E94540666E086E30E94F50537
S113039083ED90E00E94540667E080E00E94F5053A
S11303A086ED90E00E94540667E086E30E94F5051E
S11303B08AED90E00E9454060895EF92FF920F9305
S11303C01F93CF93DF937C018B0166E088E10E9449
S11303D0F5059701369527953695279536952795F2
S11303E0A5ECB0E20E943A0A929582958F70892713
S11303F09F708927805D0E94300697013695279566
S113040036952795ABE7B4E10E943A0AAC015695BC
S113041047959A01ADECBCEC0E943A0A96958795F3
S113042096958795969587959C01220F331F880F83
S1130430991F880F991F880F991F820F931F9A0184
S1130440281B390BC901805D0E9430069701ADEC71
S1130450BCEC0E943A0AEC01D695C795D695C7958F
S1130460D695C7959E010E943A0A969587959695CA
S11304708795969587959C01220F331F880F991FA6
S1130480880F991F880F991F820F931F9E01281BA5
S1130490390BC901805D0E943006CE01880F991F77
S11304A0CC0FDD1FCC0FDD1FCC0FDD1FC80FD91FF4
S11304B0C7018C1B9D0B805D0E94300666E088E4BA
S11304C00E94F50528B539B53695279536952795B3
S11304D036952795A5ECB0E20E943A0A929582954A
S11304E08F7089279F708927805D0E94300628B508
S11304F039B53695279536952795ABE7B4E10E9433
S11305003A0AAC01569547959A01ADECBCEC0E94B1
S11305103A0A9695879596958795969587959C0121
S1130520220F331F880F991F880F991F880F991F57
S1130530820F931F9A01281B390BC901805D0E9409
S1130540300628B539B5ADECBCEC0E943A0AAC01D2
S11305505695479556954795569547959A010E9405
S11305603A0A9695879596958795969587959C01D1
S1130570220F331F880F991F880F991F880F991F07
S1130580820F931F9A01281B390BC901805D0E94B9
S1130590300648B559B59A01ADECBCEC0E943A0A54
S11305A09695879596958795969587959C01220FA4
S11305B0331F880F991F880F991F880F991F820F67
S11305C0931F9A01281B390BC901805D0E943006D4
S11305D067E088E10E94F5059801369527953695E0
S11305E0279536952795A5ECB0E20E943A0A929594
S11305F082958F7089279F708927805D0E943006BD
S113060098013695279536952795ABE7B4E10E9476
S11306103A0AAC01569547959A01ADECBCEC0E94A0
S11306203A0A9695879596958795969587959C0110
S1130630220F331F880F991F880F991F880F991F46
S1130640820F931F9A01281B390BC901805D0E94F8
S113065030069801ADECBCEC0E943A0AEC01D69548
S1130660C795D695C795D695C7959E010E943A0A17
S11306709695879596958795969587959C01220FD3
S1130680331F880F991F880F991F880F991F820F96
S1130690931F9E01281B390BC901805D0E943006FF
S11306A0CE01880F991FCC0FDD1FCC0FDD1FCC0F9F
S11306B0DD1FC80FD91FC8018C1B9D0B805D0E94D4
S11306C0300667E088E40E94F5052AB53BB5369507
S11306D027953695279536952795A5ECB0E20E9487
S11306E03A0A929582958F7089279F708927805D39
S11306F00E9430062AB53BB5369527953695279541
S1130700ABE7B4E10E943A0AAC01569547959A01C9
S1130710ADECBCEC0E943A0A969587959695879520
S1130720969587959C01220F331F880F991F880F78
S1130730991F880F991F820F931F9A01281B390B49
S1130740C901805D0E9430062AB53BB5ADECBCEC16
S11307500E943A0AAC015695479556954795569589
S113076047959A010E943A0A96958795969587959A
S1130770969587959C01220F331F880F991F880F28
S1130780991F880F991F820F931F9A01281B390BF9
S1130790C901805D0E9430064AB55BB59A01ADEC93
S11307A0BCEC0E943A0A96958795969587959695FE
S11307B087959C01220F331F880F991F880F991F5B
S11307C0880F991F820F931F9A01281B390BC901A7
S11307D0805D0E943006DF91CF911F910F91FF90B1
S11307E0EF90089563E080E00E94F5058AE990E0C7
S11307F00E94540664E080E00E94F5058DED90E0CF
S11308000E94540666E080E00E94F5058DEE90E0BB
S11308100E94540666E080E50E94F50583EF90E0AF
S11308200E94540667E080E00E94F50585EF90E0A1
S11308300E94540667E080E50E94F50583EF90E08E
S11308400E9454060895EF92FF920F931F93CF9343
S1130850DF937C018B0166E08AE20E94F505970133
S1130860329522952F7023273F702327A7E4B3E006
S11308700E943A0A969587959695879596958795B9
S1130880805D0E9430069701369527953695279509
S113089036952795A5ECB0E20E943A0AAC01529530
S11308A042954F7045275F7045279A01ADECBCEC2B
S11308B00E943A0A96958795969587959695879579
S11308C09C01220F331F880F991F880F991F880FCF
S11308D0991F820F931F9A01281B390BC901805D50
S11308E00E9430068EE20E943006970136952795C5
S11308F036952795ABE7B4E10E943A0AAC015695C8
S113090047959A01ADECBCEC0E943A0A96958795FE
S113091096958795969587959C01220F331F880F8E
S1130920991F880F991F880F991F820F931F9A018F
S1130930281B390BC901805D0E9430069701ADEC7C
S1130940BCEC0E943A0AEC01D695C795D695C7959A
S1130950D695C7959E010E943A0A969587959695D5
S11309608795969587959C01220F331F880F991FB1
S1130970880F991F880F991F820F931F9E01281BB0
S1130980390BC901805D0E943006CE01880F991F82
S1130990CC0FDD1FCC0FDD1FCC0FDD1FC80FD91FFF
S11309A0C7018C1B9D0B805D0E94300667E08AE2C4
S11309B00E94F5059801329522952F7023273F70E8
S11309C02327A7E4B3E00E943A0A96958795969563
S11309D0879596958795805D0E9430069801369597
S11309E027953695279536952795A5ECB0E20E9474
S11309F03A0AAC01529542954F7045275F704527DE
S1130A009A01ADECBCEC0E943A0A969587959695AE
S1130A108795969587959C01220F331F880F991F00
S1130A20880F991F880F991F820F931F9A01281B03
S1130A30390BC901805D0E9430068EE20E943006A7
S1130A4098013695279536952795ABE7B4E10E9432
S1130A503A0AAC01569547959A01ADECBCEC0E945C
S1130A603A0A9695879596958795969587959C01CC
S1130A70220F331F880F991F880F991F880F991F02
S1130A80820F931F9A01281B390BC901805D0E94B4
S1130A9030069801ADECBCEC0E943A0AEC01D69504
S1130AA0C795D695C795D695C7959E010E943A0AD3
S1130AB09695879596958795969587959C01220F8F
S1130AC0331F880F991F880F991F880F991F820F52
S1130AD0931F9E01281B390BC901805D0E943006BB
S1130AE0CE01880F991FCC0FDD1FCC0FDD1FCC0F5B
S1130AF0DD1FC80FD91FC8018C1B9D0B805D0E9490
S1130B003006DF91CF911F910F91FF90EF900895E0
S1130B10A998AE9AAF9AAF9827E030E090E0AC0184
S1130B20022E02C0559547950A94E2F740FF02C091
S1130B30AE9A01C0AE98AF9AAF982150310978F7B8
S1130B40A99A0895A998AE98AF9AAF9827E030E093
S1130B5090E0AC01022E02C0559547950A94E2F745
S1130B6040FF02C0AE9A01C0AE98AF9AAF98215030
S1130B70310978F7A99A089584B3836C84BBAF983C
S1130B80A8982FE788E391E0215080409040E1F756
S1130B9000C00000A89AA9988FEC97E00197F1F79C
S1130BA000C00000A99A8FEC97E00197F1F700C00C
S1130BB000008FE20E94A20580E90E94A20586EA55
S1130BC00E94A20584EA0E94A2058FEA0E94A2055F
S1130BD080E40E94A20580EB0E94A20580E10E94AD
S1130BE0A20580E00E94A2050895CF93C82F80EB50
S1130BF0860F0E94A2058C2F8F7782958F7080615B
S1130C000E94A2058C2F8F700E94A205CF91089597
S1130C10CF93DF9360E080E00E94F505D9E007C040
S1130C2080E00E948805C150D9F7D15011F0C1E687
S1130C30F7CFDF91CF910895CF93DF9360E080E009
S1130C400E94F505D9E007C08FEF0E948805C150C6
S1130C50D9F7D15011F0C0E6F7CFDF91CF910895C5
S1130C600F931F93CF93DF9390E0EC01CC0FDD1F24
S1130C70C80FD91FCC0FDD1FC550DF4F01968C0163
S1130C80000F111F800F911F8C01000F111F0550C1
S1130C901F4F89910E948805C017D107D1F7DF91B2
S1130CA0CF911F910F9108950F931F93CF93DF93CB
S1130CB0FC0101900020E9F73197E81BF90B1E169F
S1130CC01F0654F4EC018C010E0F1F1F89910E9422
S1130CD03006C017D107D1F7DF91CF911F910F9143
S1130CE008950F931F93CF93DF9384E00E944F00E6
S1130CF0EC0185E00E944F008C01BC01CE010E94F2
S1130D00DD01053682E0180728F08091FD060E9477
S1130D1098090AC00C39114028F48091FD060E94FC
S1130D20670902C00E94C909C53682E0D80718F0D5
S1130D300E94BF0608C0CC39D14018F40E94B50601
S1130D4002C00E94C9068FE493EC0197F1F700C03A
S1130D500000DF91CF911F910F91089581B38863B3
S1130D6081BB82B3877C82BB089594988FEC97E013
S1130D700197F1F700C00000939A959A089593980B
S1130D808FEC97E00197F1F700C00000949A959AD0
S1130D90089595989398949808950F931F93CF93DB
S1130DA0DF93D82FCFE000E010E08D2F0E944F009A
S1130DB0080F191FC150C9F79801A9E8B8E80E94A3
S1130DC03A0ADC01B695A795B695A795B695A79569
S1130DD024E630E00E94490A2FEF33E040E050E07F
S1130DE00E941B0A84E690E0821B930BDF91CF9153
S1130DF01F910F9108952FEF80E792E021508040DA
S1130E009040E1F700C000000E9449002FE788E30A
S1130E1091E0215080409040E1F700C000000E9422
S1130E20D7092FE788E391E0215080409040E1F713
S1130E3000C000000E945C092FE788E391E0215084
S1130E4080409040E1F700C000000E94AE062FE70A
S1130E5088E391E0215080409040E1F700C0000019
S1130E600E94BC052FE788E391E021508040904028
S1130E70E1F700C000000E941C062FEF84E39CE011
S1130E80215080409040E1F700C000000E94080615
S1130E902FE788E391E0215080409040E1F700C0C3
S1130EA000000E9492000E94930178940895109289
S1130EB0FE061092FC060E94FB0681E08093FE066B
S1130EC08091FE069091FC06981771F08093FC06C1
S1130ED00E94FC072FE78AE196E021508040904071
S1130EE0E1F700C0000078948091FC06833029F07B
S1130EF0843049F0823021F703C00E942808E0CFF3
S1130F000E947106DDCF0E948607DACFCF93DF936C
S1130F100E945A00EC010E947600BC01CE010E949E
S1130F2023042FEF80E792E0215080409040E1F7C6
S1130F3000C00000DF91CF9108950E94B506089586
S1130F400E94BF0608950E94C90608958091FD0677
S1130F500E94980908958091FD060E9467090895EA
S1130F600E94C90908952FEF81EE94E0215080403A
S1130F709040E1F700C000000E9408060E94920021
S1130F800E94930108952FEF81EE94E02150804058
S1130F909040E1F700C000000E9408060E94920001
S1130FA00E94AC0108952FEF81EE94E0215080401F
S1130FB09040E1F700C000000E9408060E949200E1
S1130FC00E94A3002FEF84E39CE0215080409040D6
S1130FD0E1F700C0000008952FEF81EE94E0215066
S1130FE080409040E1F700C000000E9408060E9483
S1130FF092000E94F2030895CF93C82F0E94C9065D
S11310000E94C9090E940806C23079F018F4C13060
S113101031F01CC0C33079F0C43099F017C081E0BE
S11310208093FE060E94B30711C082E08093FE06FF
S11310300E94C3070BC083E08093FE060E94D3077F
S113104005C084E08093FE060E94EC07CF910895CA
S1131050CF93DF9380E00E94CD0690931207809394
S1131060110781E00E94CD06909304078093030743
S113107082E00E94CD0690930E0780930D0783E0D3
S11310800E94CD069093060780930507609111078F
S11310907091120780E00E94BC0060910307709178
S11310A0040781E00E94BC0060910D0770910E0757
S11310B082E00E94BC00609105077091060783E0FE
S11310C00E94BC00E0911107F091120760910307A0
S11310D070910407AF01460F571F559547955093DC
S11310E0100740930F0720910D0730910E07809150
S11310F0050790910607A901480F591F5595479573
S1131100509300074093FF062E0F3F1F35952795F8
S11311103093020720930107860F971F95958795B3
S113112090930C0780930B0762E08AE20E94F50516
S113113080910F0790911007CAE0D0E0BE010E9491
S1131140070ACB01BE010E94070A805D0E94300697
S113115080910F0790911007BE010E94070A805DDD
S11311600E94300666E08AE20E94F5058091FF063F
S113117090910007BE010E94070ACB01BE010E94A4
S1131180070A805D0E9430068091FF069091000757
S1131190BE010E94070A805D0E94300664E086E07A
S11311A00E94F5058091010790910207BE010E94FB
S11311B0070ACB01BE010E94070A805D0E94300627
S11311C08091010790910207BE010E94070A805D89
S11311D00E94300664E08EE40E94F50580910B07BE
S11311E090910C07BE010E94070ACB01BE010E9428
S11311F0070A805D0E94300680910B0790910C07CE
S1131200BE010E94070A805D0E94300680910F078C
S1131210909110072091FF0630910007821B930BD9
S113122090930807809307072091010730910207E4
S113123040910B0750910C07241B350B30930A0780
S1131240209309079C01992324F422273327281B80
S1131250390B233031054CF0181619061CF40E9482
S1131260AB0705C00E94A60702C00E94B007809188
S1131270090790910A079C01992324F42227332714
S1131280281B390B233031054CF0181619061CF4B1
S11312900E94A00705C00E949D0702C00E94A307E8
S11312A02FEF89EF90E0215080409040E1F700C09B
S11312B00000DF91CF91089587B38F6087BBC098FA
S11312C0C198C298C39884E08093FD060895823043
S11312D089F018F4813031F024C0833099F08430DF
S11312E0C9F01FC0C098C19AC298C39882E0809385
S11312F0FD0617C0C098C198C29AC39883E0809332
S1131300FD060FC0C098C198C298C39A84E0809328
S1131310FD0607C0C09AC198C298C39881E0809323
S1131320FD068FE697E10197F1F700C000000895EC
S1131330823089F018F4813031F024C0833099F080
S11313408430C9F01FC0C098C198C298C39A84E081
S11313508093FD0617C0C09AC198C298C39881E0D3
S11313608093FD060FC0C098C19AC298C39882E0CA
S11313708093FD0607C0C098C198C29AC39883E0C1
S11313808093FD068FE697E10197F1F700C0000016
S11313900895C098C198C298C39808958A98929A5B
S11313A085B78C7F85BF8BB780648BBF08950E94FF
S11313B0CE0908951F920F920FB60F9211248F93A6
S11313C0F8948091FE06823069F018F4813031F08F
S11313D015C0833059F0843069F010C082E08093E6
S11313E0FE060FC083E08093FE060BC084E080936A
S11313F0FE0607C081E08093FE0603C081E080936F
S1131400FE068F910F900FBE0F901F90189597FBBB
S1131410072E16F4009407D077FD09D00E945B0ACA
S113142007FC05D03EF4909581959F4F08957095E3
S113143061957F4F0895052E97FB1EF400940E943A
S1131440320A57FD07D00E946F0A07FC03D04EF4FE
S11314500C94320A50954095309521953F4F4F4F4B
S11314605F4F089590958095709561957F4F8F4F4C
S11314709F4F0895A29FB001B39FC001A39F700D19
S1131480811D1124911DB29F700D811D1124911D88
S113149008950E943A0AB7FF0895821B930B08959A
S11314A00E943A0AA59F900DB49F900DA49F800DB1
S11314B0911D11240895AA1BBB1B51E107C0AA1F4B
S11314C0BB1FA617B70710F0A61BB70B881F991FE1
S11314D05A95A9F780959095BC01CD010895A1E294
S11314E01A2EAA1BBB1BFD010DC0AA1FBB1FEE1F9A
S11314F0FF1FA217B307E407F50720F0A21BB30BE5
S1131500E40BF50B661F771F881F991F1A9469F760
S113151060957095809590959B01AC01BD01CF01BC
S10915200895F894FFCFCA
S11315264175746F547261636B696E67204C4452E3
S113153600202053636F7270696F6E495058002003
S11315462020202020207C7C003D3D3D3D3D3D3D2E
S11315563D3D3D3D3D3D3D3D3D002D20737973743C
S1131566656D20697320696E200049444C45206DE1
S11315766F646500676F696E6720746F20736C65AE
S11315866570004D414E55414C206D6F6465004AAF
S1131596583A00423A004A593A00413A004D4F4EF1
S11315A649544F52494E47206D6F64650056626137
S11315B6743A005600566368723A00000000000050
S11315C600006418046418003C4040207C000C3081
S11315D640300C003C4030403C00003E1C080000FB
S11315E6041E1F1E0400103C7C3C100020403E01DB
S11315F602002214081422000038283800000010C3
S113160638100000000010000000087808000000F0
S11316160015150A00007F7F0909010010207F01CB
S11316260100040400011F000019151200004060A7
S1131636504844000609090600000F020101000093
S113164600011F01000044444A4A510014741C1747
S11316561400514A4A444400000004040400007C77
S11316665454440008082A1C08007C007C447C006E
S113167604027F02040010207F20100000000000F6
S1131686000000006F000000000700070000147F40
S1131696147F14000007041E00002313086462006C
S11316A6364956205000000007000000001C224165
S11316B600000041221C000014083E08140008081B
S11316C63E0808000050300000000808080808001A
S11316D60060600000002010080402003E514945E5
S11316E63E0000427F4000004261514946002141CC
S11316F6454B31001814127F100027454545390023
S11317063C4A4949300001710905030036494949F3
S11317163600064949291E000036360000000056E8
S11317263600000008142241000014141414140096
S11317360041221408000201510906003E415D4998
S11317464E007E0909097E007F49494936003E411B
S1131756414122007F4141413E007F4949494100C0
S11317667F09090901003E4149497A007F080808B2
S11317767F0000417F4100002040413F01007F0877
S1131786142241007F40404040007F020C027F004B
S11317967F0408107F003E4141413E007F0909094C
S11317A606003E4151215E007F091929460046493B
S11317B64949310001017F0101003F4040403F009B
S11317C60F3040300F003F4030403F006314081490
S11317D663000708700807006151494543003C4A05
S11317E649291E0002040810200000417F00000061
S11317F6040201020400404040404000000003048B
S113180600002054545478007F4844443800384437
S113181644442000384444487F0038545454180043
S1131826087E090102000C5252523E007F0804044D
S1131836780000447D4000002040443D0000007FC5
S11318461028440000417F4000007C0418047800FE
S11318567C08040478003844444438007C14141486
S11318660800081414187C007C0804040800485472
S113187654542000043F444020003C4040207C0057
S11318861C2040201C003C4030403C0044281028CA
S113189644000C5050503C004464544C440000082E
S11318A63641410000007F00000041413608000037
S11318B60402040804007F6B6B6B7F00007C447C8D
S11318C6000000087C000000006454480000004446
S11318D654280000001C10780000005C542400000A
S11318E60078547400000064140C0000007C547CDE
S11318F60000005C543C00007824262578007825F6
S113190626247800702A292A700078252425780050
S1131916205456557800205556547800205655566E
S113192678002055545578007C54565544007C550F
S1131936565444007C56555644007C555455440030
S113194638545655180038555654180038565556B6
S1131956180038555455180000447E4500000045CB
S11319667E44000000467D46000000457C4500009C
S113197600487A41000000497A400000004A794252
S1131986000000497841000038444645380038458F
S113199646443800384645463800384544453800FC
S11319A630484A49300030494A483000304A494AAA
S11319B630003049484930003C4042413C003C41FB
S11319C642403C003C4241423C003C4140413C00D8
S11319D63C4042217C003C4142207C00384241226A
S11319E678003C4140217C004E5171110A00586434
S11319F6642410007C0A11227D007812090A710001
S1131A0600000402010001020400000000020002BA
S1131A16000030484540200000007B0000003844A8
S1131A2644384400403E49493600080408700C0016
S1131A366050485060002052555930003854545470
S1131A46000000007F4100004022141860007C2042
S1131A56201C2000443C047C4400403C12120C0030
S1131A664163554941003844443C040008043C445D
S1131A76240008147F1408004E7101714E00452994
S1131A86112945000D5151513D0000000502050084
S1131A9640004000400000081C3E00001C1C1C00C6
S1131AA60000007008070000000808080000001D78
S1131AB6151700000007050700000011150A0000AD
S1131AC6000000000000043C412000007C161516AE
S1131AD608002116083442007F091D01030038540A
S1131AE65414080000007C4040007F0E1C387F0020
S1131AF641225D221C001C3E1C0800007F7F7F7F64
S1131B067F00777B017B77007F4375437F007F6F80
S1131B1655437F0040404040400044425F424400F9
S1131B26405E455E40004048555E40000004081093
S1131B36200003070E1C38000103070F1F007C78E2
S1131B467060400008081C221C00001C221C0000B7
S1131B56020008002000043E3F3E0400103E7E3E84
S1131B661000552A552A5500242A7F2A1200041EDD
S1131B761F1E04000000000000000000000000001A
S1131B86000000000000000000000000000000004B
S1131B96000000000000000000000000000000003B
S1131BA6000000000000000000000000000000002B
S10F1BB60000000000000000000000001F
S9030000FC
