:100000000C942A000C9495080C9447000C9447001B
:100010000C9447000C9447000C9447000C94470044
:100020000C9447000C9447000C9447000C94470034
:100030000C9447000C9447000C9447000C94470024
:100040000C9447000C9447000C9447000C94470014
:100050000C94470011241FBECFE5D8E0DEBFCDBF12
:1000600016E0A0E6B0E0E4E7F2E102C005900D92F0
:10007000AE3DB107D9F726E0AEEDB6E001C01D9266
:10008000A43FB207E1F70E94F3050C9438090C94E1
:10009000000014BA80E487B987E886B9089597B15B
:1000A000987F8770892B87B9369A3699FECF84B1AD
:1000B00095B1089560E080E00E94270480E690E01A
:1000C0000E94860461E080E00E94270481E790E0BE
:1000D0000E948604089563E080E00E9427048FE771
:1000E00090E00E94860464E080E00E94270489E892
:1000F00090E00E94860465E080E00E9427048FE77C
:1001000090E00E9486040895CF93DF93EB01682F5F
:100110006E7F6D5F817094E2899F802D1124885ECF
:100120000E9427042AE030E0CE01B9010E94B908FC
:10013000C82FCB01B9010E94B908805D0E946204FA
:1001400080E38C0F0E94620467E082E10E94270432
:100150002AB53BB53695279536952795ABE7B4E19B
:100160000E94EC0896958795805D0E9462042AB5EE
:100170003BB5ADECBCEC0E94EC08AC015695479544
:1001800056954795569547959A010E94EC08969585
:10019000879596958795969587959C01220F331F95
:1001A000880F991F880F991F880F991F820F931F1F
:1001B0009A01281B390BC901805D0E9462044AB56F
:1001C0005BB59A01ADECBCEC0E94EC089695879566
:1001D00096958795969587959C01220F331F880FDA
:1001E000991F880F991F880F991F820F931F9A01DB
:1001F000281B390BC901805D0E94620467E082E41C
:100200000E94270428B539B5369527953695279548
:10021000ABE7B4E10E94EC0896958795805D0E945B
:10022000620428B539B5ADECBCEC0E94EC08AC0119
:100230005695479556954795569547959A010E942C
:10024000EC089695879596958795969587959C0148
:10025000220F331F880F991F880F991F880F991F2E
:10026000820F931F9A01281B390BC901805D0E94E0
:10027000620448B559B59A01ADECBCEC0E94EC089B
:100280009695879596958795969587959C01220FCB
:10029000331F880F991F880F991F880F991F820F8E
:1002A000931F9A01281B390BC901805D0E946204CB
:1002B000DF91CF91089563E080E00E9427048AE9EE
:1002C00090E00E94860464E080E00E9427048AEAAD
:1002D00090E00E94860466E080E00E94270484EBA0
:1002E00090E00E948604089563E080E00E94270465
:1002F0008AE990E00E94860464E080E00E9427047E
:1003000083EC90E00E94860466E080E00E9427046F
:100310008FEC90E00E94860466E086E30E9427044A
:1003200083ED90E00E94860467E080E00E9427044D
:1003300086ED90E00E94860467E086E30E94270431
:100340008AED90E00E9486040895EF92FF920F9349
:100350001F93CF93DF937C018B0166E088E10E94BD
:100360002704970136952795369527953695279535
:10037000A5ECB0E20E94EC08929582958F708927D7
:100380009F708927805D0E946204970136952795AA
:1003900036952795ABE7B4E10E94EC08AC01569581
:1003A00047959A01ADECBCEC0E94EC0896958795B8
:1003B00096958795969587959C01220F331F880FF8
:1003C000991F880F991F880F991F820F931F9A01F9
:1003D000281B390BC901805D0E9462049701ADECB6
:1003E000BCEC0E94EC08EC01D695C795D695C79554
:1003F000D695C7959E010E94EC089695879596958F
:100400008795969587959C01220F331F880F991F1A
:10041000880F991F880F991F820F931F9E01281B19
:10042000390BC901805D0E946204CE01880F991FBB
:10043000CC0FDD1FCC0FDD1FCC0FDD1FC80FD91F68
:10044000C7018C1B9D0B805D0E94620466E088E4FE
:100450000E94270428B539B53695279536952795F6
:1004600036952795A5ECB0E20E94EC08929582950E
:100470008F7089279F708927805D0E94620428B54C
:1004800039B53695279536952795ABE7B4E10E94A7
:10049000EC08AC01569547959A01ADECBCEC0E9476
:1004A000EC089695879596958795969587959C01E6
:1004B000220F331F880F991F880F991F880F991FCC
:1004C000820F931F9A01281B390BC901805D0E947E
:1004D000620428B539B5ADECBCEC0E94EC08AC0167
:1004E0005695479556954795569547959A010E947A
:1004F000EC089695879596958795969587959C0196
:10050000220F331F880F991F880F991F880F991F7B
:10051000820F931F9A01281B390BC901805D0E942D
:10052000620448B559B59A01ADECBCEC0E94EC08E8
:100530009695879596958795969587959C01220F18
:10054000331F880F991F880F991F880F991F820FDB
:10055000931F9A01281B390BC901805D0E94620418
:1005600067E088E10E942704980136952795369523
:10057000279536952795A5ECB0E20E94EC08929558
:1005800082958F7089279F708927805D0E94620401
:1005900098013695279536952795ABE7B4E10E94EB
:1005A000EC08AC01569547959A01ADECBCEC0E9465
:1005B000EC089695879596958795969587959C01D5
:1005C000220F331F880F991F880F991F880F991FBB
:1005D000820F931F9A01281B390BC901805D0E946D
:1005E00062049801ADECBCEC0E94EC08EC01D695DD
:1005F000C795D695C795D695C7959E010E94EC08DC
:100600009695879596958795969587959C01220F47
:10061000331F880F991F880F991F880F991F820F0A
:10062000931F9E01281B390BC901805D0E94620443
:10063000CE01880F991FCC0FDD1FCC0FDD1FCC0F13
:10064000DD1FC80FD91FC8018C1B9D0B805D0E9448
:10065000620467E088E40E9427042AB53BB536951A
:1006600027953695279536952795A5ECB0E20E94FB
:10067000EC08929582958F7089279F708927805DFD
:100680000E9462042AB53BB5369527953695279585
:10069000ABE7B4E10E94EC08AC01569547959A018E
:1006A000ADECBCEC0E94EC089695879596958795E5
:1006B000969587959C01220F331F880F991F880FED
:1006C000991F880F991F820F931F9A01281B390BBE
:1006D000C901805D0E9462042AB53BB5ADECBCEC5B
:1006E0000E94EC08AC01569547955695479556954E
:1006F00047959A010E94EC0896958795969587955F
:10070000969587959C01220F331F880F991F880F9C
:10071000991F880F991F820F931F9A01281B390B6D
:10072000C901805D0E9462044AB55BB59A01ADECD7
:10073000BCEC0E94EC0896958795969587959695C2
:1007400087959C01220F331F880F991F880F991FCF
:10075000880F991F820F931F9A01281B390BC9011B
:10076000805D0E946204DF91CF911F910F91FF90F5
:10077000EF900895A998AE9AAF9AAF9827E030E02D
:1007800090E0AC01022E02C0559547950A94E2F71D
:1007900040FF02C0AE9A01C0AE98AF9AAF98215008
:1007A000310978F7A99A0895A998AE98AF9AAF98A9
:1007B00027E030E090E0AC01022E02C0559547954D
:1007C0000A94E2F740FF02C0AE9A01C0AE98AF9A19
:1007D000AF982150310978F7A99A089584B3836CB2
:1007E00084BBAF98A8982FE788E391E02150804020
:1007F0009040E1F700C00000A89AA9988FEC97E01C
:100800000197F1F700C00000A99A8FEC97E00197DB
:10081000F1F700C000008FE20E94D40380E90E943B
:10082000D40386EA0E94D40384EA0E94D4038FEAA8
:100830000E94D40380E40E94D40380EB0E94D4037E
:1008400080E10E94D40380E00E94D4030895CF93F6
:10085000C82F80EB860F0E94D4038C2F8F77829550
:100860008F7080610E94D4038C2F8F700E94D403FC
:10087000CF910895CF93DF9360E080E00E9427043A
:10088000D9E007C080E00E94BA03C150D9F7D15027
:1008900011F0C1E6F7CFDF91CF910895CF93DF93A9
:1008A00060E080E00E942704D9E007C08FEF0E943B
:1008B000BA03C150D9F7D15011F0C0E6F7CFDF919C
:1008C000CF9108950F931F93CF93DF9390E0EC01A6
:1008D000CC0FDD1FC80FD91FCC0FDD1FC352DF4F58
:1008E00001968C01000F111F800F911F8C01000FCA
:1008F000111F03521F4F89910E94BA03C017D107DD
:10090000D1F7DF91CF911F910F9108950F931F930E
:10091000CF93DF93FC0101900020E9F73197E81BAA
:10092000F90B1E161F0654F4EC018C010E0F1F1F4D
:1009300089910E946204C017D107D1F7DF91CF914E
:100940001F910F9108950F931F93CF93DF9384E02E
:100950000E944F00EC0185E00E944F008C01BC0119
:10096000CE010E94A501053682E0180730F08AB555
:100970009BB501969BBD8ABD08C00C39114028F477
:100980008AB59BB501979BBD8ABDC53682E0D80765
:1009900030F088B599B5019799BD88BD08C0CC39AC
:1009A000D14028F488B599B5019699BD88BD4AB55E
:1009B0005BB586B597B59C01220F331F880F991F31
:1009C000880F991F880F991F280F391FA1E6B6EFCE
:1009D0000E94EC08880F892F881F990B91958897A2
:1009E00084179507B8F486B597B59C01220F331F7D
:1009F000880F991F880F991F880F991F280F391F7B
:100A00000E94EC08880F892F881F990B9195889771
:100A10009BBD8ABD4AB55BB526B537B5ADECBCEC20
:100A20000E94EC08929582958F7089279F70892784
:100A3000815491094817590770F426B537B50E94BB
:100A4000EC08929582958F7089279F708927815431
:100A500091099BBD8ABD48B559B526B537B5ADECF2
:100A6000BCEC0E94EC08969587959695879596958F
:100A7000879505978417950768F426B537B50E94C2
:100A8000EC08969587959695879596958795059701
:100A900099BD88BD48B559B526B537B5ADECBCECA8
:100AA0000E94EC08929582958F7089279F70892704
:100AB000CC974817590768F426B537B50E94EC085B
:100AC000929582958F7089279F708927CC9799BDC1
:100AD00088BD8FE493EC0197F1F700C00000DF912F
:100AE000CF911F910F9108950F931F93CF93DF9391
:100AF000D82FCFE000E010E08D2F0E944F00080FAC
:100B0000191FC150C9F79801A9E8B8E80E94EC087C
:100B1000DC01B695A795B695A795B695A79524E659
:100B200030E00E94FB082FEF33E040E050E00E94ED
:100B3000CD0884E690E0821B930BDF91CF911F914B
:100B40000F9108952FEF80E792E021508040904070
:100B5000E1F700C000000E9449002FE788E391E020
:100B6000215080409040E1F700C000000E944706FD
:100B70002FE788E391E0215080409040E1F700C0EA
:100B800000000E9492082FE788E391E02150804006
:100B90009040E1F700C000000E94EE032FE788E3D9
:100BA00091E0215080409040E1F700C000000E9499
:100BB0004E042FEF84E39CE0215080409040E1F709
:100BC00000C000000E943A042FE788E391E0215022
:100BD00080409040E1F700C000000E945A000E944F
:100BE0005B01789408951092DF061092DE060E9451
:100BF000A20526B537B5ADECBCEC0E94EC08929589
:100C000082958F7089279F708927815491099BBD98
:100C10008ABD86B597B59C01220F331F880F991F97
:100C2000880F991F880F991F280F391FA1E6B6EF6B
:100C30000E94EC08880F892F881F990B9195859742
:100C400099BD88BD0E945F0681E08093DF06809198
:100C5000DF069091DE06981771F08093DE060E9401
:100C60009C062FE78AE196E0215080409040E1F712
:100C700000C0000078948091DE06823029F0833035
:100C800031F70E94B906E3CF0E94A304E0CF81B3FD
:100C9000806381BB83EC99E097BD86BD1BBC1ABC09
:100CA00019BC18BC8FB58F758FBD8EB583608EBD96
:100CB0008FB582608FBD8EB588618EBD08958FB56A
:100CC000806A8FBD08952FEF81EE94E0215080401F
:100CD0009040E1F700C000000E943A040E945A00D0
:100CE0000E945B0108952FEF81EE94E02150804037
:100CF0009040E1F700C000000E943A040E945A00B0
:100D00000E94740108952FEF81EE94E021508040FD
:100D10009040E1F700C000000E943A040E945A008F
:100D20000E946B002FEF84E39CE0215080409040B4
:100D3000E1F700C000000895CF93C82F0E943A0445
:100D4000C23051F0C33071F0C13089F481E080933A
:100D5000DF060E9463060BC082E08093DF060E94DC
:100D6000730605C083E08093DF060E948306CF915F
:100D70000895CF93DF9380E00E9474059093F3066B
:100D80008093F20681E00E9474059093E5068093BB
:100D9000E40682E00E9474059093EF068093EE06CD
:100DA00083E00E9474059093E7068093E6066091C5
:100DB000F2067091F30680E00E9484006091E406E0
:100DC0007091E50681E00E9484006091EE067091CA
:100DD000EF0682E00E9484006091E6067091E706CB
:100DE00083E00E948400E091F206F091F3066091A6
:100DF000E4067091E506AF01460F571F55954795DC
:100E00005093F1064093F0062091EE063091EF06E4
:100E10008091E6069091E706A901480F591F559564
:100E200047955093E1064093E0062E0F3F1F3595FE
:100E300027953093E3062093E206860F971F95953A
:100E400087959093ED068093EC0662E08AE20E941B
:100E500027048091F0069091F106CAE0D0E0BE012F
:100E60000E94B908CB01BE010E94B908805D0E94B2
:100E700062048091F0069091F106BE010E94B908CB
:100E8000805D0E94620466E08AE20E9427048091ED
:100E9000E0069091E106BE010E94B908CB01BE01B7
:100EA0000E94B908805D0E9462048091E0069091E2
:100EB000E106BE010E94B908805D0E94620464E000
:100EC00086E00E9427048091E2069091E306BE012D
:100ED0000E94B908CB01BE010E94B908805D0E9442
:100EE00062048091E2069091E306BE010E94B90877
:100EF000805D0E94620464E08EE40E942704809179
:100F0000EC069091ED06BE010E94B908CB01BE012E
:100F10000E94B908805D0E9462048091EC06909165
:100F2000ED06BE010E94B908805D0E9462048091B6
:100F3000F0069091F1062091E0063091E106821BC7
:100F4000930B9093E9068093E8062091E206309196
:100F5000E3064091EC065091ED06241B350B3093CF
:100F6000EB062093EA069C01992324F422273327D9
:100F7000281B390B2330310584F04AB55BB59C0141
:100F8000992314F42D5F3F4F359527953595279577
:100F9000CA01821B930B9BBD8ABD8091EA0690918A
:100FA000EB069C01992324F422273327281B390BB5
:100FB0002330310584F048B559B59C01992314F4C8
:100FC0002D5F3F4F3595279535952795CA01821B93
:100FD000930B99BD88BD4AB55BB586B597B59C01A5
:100FE000220F331F880F991F880F991F880F991F91
:100FF000280F391FA1E6B6EF0E94EC08880F892F51
:10100000881F990B9195889784179507B8F486B532
:1010100097B59C01220F331F880F991F880F991FC6
:10102000880F991F280F391F0E94EC08880F892FFD
:10103000881F990B919588979BBD8ABD4AB55BB572
:1010400026B537B5ADECBCEC0E94EC0892958295C4
:101050008F7089279F7089278154910948175907F4
:1010600070F426B537B50E94EC08929582958F7082
:1010700089279F708927815491099BBD8ABD48B5F6
:1010800059B526B537B5ADECBCEC0E94EC08969589
:1010900087959695879596958795059784179507D3
:1010A00068F426B537B50E94EC0896958795969515
:1010B000879596958795059799BD88BD48B559B58B
:1010C00026B537B5ADECBCEC0E94EC089295829544
:1010D0008F7089279F708927CC974817590768F424
:1010E00026B537B50E94EC08929582958F708927B6
:1010F0009F708927CC9799BD88BD2FEF80E792E03C
:10110000215080409040E1F700C00000DF91CF9176
:1011100008958A98929A85B78C7F85BF8BB7806433
:101120008BBF08950E94890808951F920F920FB6F1
:101130000F9211248F93F8948091DF06823041F052
:10114000833051F0813061F482E08093DF060BC080
:1011500083E08093DF0607C081E08093DF0603C051
:1011600081E08093DF068F910F900FBE0F901F904C
:10117000189597FB072E16F4009407D077FD09D039
:101180000E94020907FC05D03EF4909581959F4F7F
:101190000895709561957F4F0895052E97FB1EF475
:1011A00000940E94E40857FD07D00E94160907FC2E
:1011B00003D04EF40C94E408509540953095219559
:1011C0003F4F4F4F5F4F0895909580957095619573
:1011D0007F4F8F4F9F4F0895A29FB001B39FC001D3
:1011E000A39F700D811D1124911DB29F700D811D53
:1011F0001124911D08950E94EC08B7FF0895821BE9
:10120000930B0895AA1BBB1B51E107C0AA1FBB1F6C
:10121000A617B70710F0A61BB70B881F991F5A9582
:10122000A9F780959095BC01CD010895A1E21A2EF1
:10123000AA1BBB1BFD010DC0AA1FBB1FEE1FFF1F7A
:10124000A217B307E407F50720F0A21BB30BE40BCA
:10125000F50B661F771F881F991F1A9469F7609511
:101260007095809590959B01AC01BD01CF010895CB
:04127000F894FFCF20
:101274004175746F547261636B696E67204C44529C
:1012840000202053636F7270696F6E4950580020BC
:101294002020202020207C7C003D3D3D3D3D3D3DE7
:1012A4003D3D3D3D3D3D3D3D3D002D2073797374F5
:1012B400656D20697320696E200049444C45206D9A
:1012C4006F646500676F696E6720746F20736C6567
:1012D4006570004D414E55414C206D6F6465004A68
:1012E400583A00423A004A593A00413A0000000094
:1012F400000000006418046418003C4040207C0096
:101304000C3040300C003C4030403C00003E1C0897
:101314000000041E1F1E0400103C7C3C10002040F2
:101324003E0102002214081422000038283800006C
:1013340000103810000000001000000008780800B9
:1013440000000015150A00007F7F09090100102024
:101354007F010100040400011F00001915120000A0
:101364004060504844000609090600000F020101CC
:10137400000000011F01000044444A4A5100147453
:101384001C171400514A4A44440000000404040099
:10139400007C5454440008082A1C08007C007C4447
:1013A4007C0004027F02040010207F201000000053
:1013B4000000000000006F000000000700070000AC
:1013C400147F147F14000007041E00002313086414
:1013D4006200364956205000000007000000001C3F
:1013E400224100000041221C000014083E081400A1
:1013F40008083E08080000503000000008080808EB
:1014040008000060600000002010080402003E5143
:1014140049453E0000427F40000042615149460078
:101424002141454B31001814127F100027454545D2
:1014340039003C4A49493000017109050300364925
:1014440049493600064949291E0000363600000085
:10145400005636000000081422410000141414142D
:1014640014000041221408000201510906003E4103
:101474005D494E007E0909097E007F4949493600CD
:101484003E41414122007F4141413E007F4949495B
:1014940041007F09090901003E4149497A007F085A
:1014A40008087F0000417F4100002040413F0100C7
:1014B4007F08142241007F40404040007F020C021C
:1014C4007F007F0408107F003E4141413E007F09B8
:1014D400090906003E4151215E007F091929460091
:1014E40046494949310001017F0101003F40404024
:1014F4003F000F3040300F003F4030403F00631446
:101504000814630007087008070061514945430047
:101514003C4A49291E0002040810200000417F00B3
:10152400000004020102040040404040400000006A
:10153400030400002054545478007F484444380085
:10154400384444442000384444487F0038545454B8
:101554001800087E090102000C5252523E007F0816
:101564000404780000447D4000002040443D000015
:10157400007F1028440000417F4000007C041804D0
:1015840078007C08040478003844444438007C140F
:1015940014140800081414187C007C0804040800BF
:1015A400485454542000043F444020003C40402010
:1015B4007C001C2040201C003C4030403C0044285F
:1015C400102844000C5050503C004464544C4400D7
:1015D40000083641410000007F0000004141360808
:1015E40000000402040804007F6B6B6B7F00007C26
:1015F400447C000000087C000000006454480000A3
:10160400004454280000001C10780000005C54249E
:1016140000000078547400000064140C0000007C86
:10162400547C0000005C543C00007824262578009B
:10163400782526247800702A292A70007825242504
:10164400780020545655780020555654780020567A
:10165400555678002055545578007C54565544000E
:101664007C55565444007C56555644007C5554557C
:1016740044003854565518003855565418003856F6
:101684005556180038555455180000447E4500003E
:1016940000457E44000000467D46000000457C4530
:1016A400000000487A41000000497A400000004AE6
:1016B400794200000049784100003844464538002A
:1016C4003845464438003846454638003845444590
:1016D400380030484A49300030494A483000304ADE
:1016E400494A30003049484930003C4042413C00BE
:1016F4003C4142403C003C4241423C003C41404170
:101704003C003C4042217C003C4142207C00384269
:10171400412278003C4140217C004E5171110A0065
:101724005864642410007C0A11227D007812090A8E
:101734007100000004020100010204000000000224
:101744000002000030484540200000007B000000FB
:10175400384444384400403E49493600080408707F
:101764000C006050485060002052555930003854E5
:101774005454000000007F4100004022141860000F
:101784007C20201C2000443C047C4400403C121279
:101794000C004163554941003844443C04000804AA
:1017A4003C44240008147F1408004E7101714E005B
:1017B4004529112945000D5151513D0000000502F4
:1017C400050040004000400000081C3E00001C1CB6
:1017D4001C00000000700807000000080808000052
:1017E400001D151700000007050700000011150A69
:1017F4000000000000000000043C412000007C16B2
:10180400151608002116083442007F091D01030043
:1018140038545414080000007C4040007F0E1C38EB
:101824007F0041225D221C001C3E1C0800007F7FBB
:101834007F7F7F00777B017B77007F4375437F0049
:101844007F6F55437F0040404040400044425F4228
:101854004400405E455E40004048555E4000000440
:101864000810200003070E1C38000103070F1F0097
:101874007C787060400008081C221C00001C221C9C
:101884000000020008002000043E3F3E0400103E19
:101894007E3E1000552A552A5500242A7F2A12001C
:1018A400041E1F1E040000000000000000000000D1
:1018B4000000000000000000000000000000000024
:1018C4000000000000000000000000000000000014
:1018D4000000000000000000000000000000000004
:0E18E4000000000000000000000000000000F6
:00000001FF
