S013000053756E547261636B696E672E73726563A8
S11300000C9434000C94BD060C9451000C945100D3
S11300100C9451000C9451000C9451000C94510018
S11300200C9451000C9451000C9451000C94510008
S11300300C9451000C9451000C9451000C945100F8
S11300400C9451000C9451000C9451000C945100E8
S11300500C9451000C9451000C9451000C945100D8
S11300600C9451000C94510011241FBECFEFD8E022
S1130070DEBFCDBF17E0A0E0B1E0E4ECFEE002C0DB
S113008005900D92A837B107D9F727E0A8E7B7E0A4
S113009001C01D92AE38B207E1F70E9412040C941D
S11300A060070C94000017B880E480937C0087E814
S11300B080937A000895ECE7F0E09081987F877050
S11300C0892B8083EAE7F0E08081806480838081EB
S11300D086FDFDCF8091780090917900089560E0CD
S11300E080E00E94190380E091E00E94780361E0BF
S11300F080E00E94190381E191E00E947803089551
S113010063E080E00E9419038FE191E00E9478038C
S113011064E080E00E94190389E291E00E94780380
S113012065E080E00E9419038FE191E00E9478036A
S11301300895CF93DF93EB01682F6E7F6D5F81701D
S113014094E2899F802D1124885E0E9419032AE07D
S113015030E0CE01B9010E94E106C82FCB01B901FC
S11301600E94E106805D0E94540380E38C0F0E948C
S1130170540367E082E10E941903C8E8D0E02881B3
S113018039813695279536952795ABE7B4E10E94DA
S1130190140796958795805D0E94540328813981C0
S11301A0ADECBCEC0E941407AC01569547955695EE
S11301B04795569547959A010E94140796958795F9
S11301C096958795969587959C01220F331F880FE6
S11301D0991F880F991F880F991F820F931F9A01E7
S11301E0281B390BC901805D0E9454034881598141
S11301F09A01ADECBCEC0E941407969587959695F0
S11302008795969587959C01220F331F880F991F18
S1130210880F991F880F991F820F931F9A01281B1B
S1130220390BC901805D0E94540367E082E40E9497
S11302301903CAE8D0E02881398136952795369587
S11302402795ABE7B4E10E94140796958795805DE6
S11302500E94540328813981ADECBCEC0E94140740
S1130260AC015695479556954795569547959A01ED
S11302700E941407969587959695879596958795E8
S11302809C01220F331F880F991F880F991F880F15
S1130290991F820F931F9A01281B390BC901805D96
S11302A00E945403488159819A01ADECBCEC0E9430
S11302B014079695879596958795969587959C01AD
S11302C0220F331F880F991F880F991F880F991FBA
S11302D0820F931F9A01281B390BC901805D0E946C
S11302E05403DF91CF91089563E080E00E941903E5
S11302F08AE391E00E94780364E080E00E9419039D
S11303008AE491E00E94780366E080E00E94190389
S113031084E591E00E947803089563E080E00E9400
S113032019038AE391E00E94780364E080E00E946C
S1130330190383E691E00E94780366E080E00E945E
S113034019038FE691E00E94780367E080E00E9441
S1130350190383E791E00E9478030895EF92FF92D6
S11303600F931F93CF93DF937C018B0166E088E1A9
S11303700E9419039701369527953695279536954A
S11303802795A5ECB0E20E941407929582958F7090
S113039089279F708927805D0E94540397013695B1
S11303A0279536952795ABE7B4E10E941407AC0175
S11303B0569547959A01ADECBCEC0E9414079695AE
S11303C0879596958795969587959C01220F331F5F
S11303D0880F991F880F991F880F991F820F931FE9
S11303E09A01281B390BC901805D0E9454039701AF
S11303F0ADECBCEC0E941407EC01D695C795D695DC
S1130400C795D695C7959E010E9414079695879522
S113041096958795969587959C01220F331F880F93
S1130420991F880F991F880F991F820F931F9E0190
S1130430281B390BC901805D0E945403CE01880F2B
S1130440991FCC0FDD1FCC0FDD1FCC0FDD1FC80F94
S1130450D91FC7018C1B9D0B805D0E94540367E06C
S113046088E10E94190398013695279536952795BA
S113047036952795A5ECB0E20E94140792958295D3
S11304808F7089279F708927805D0E94540398018B
S11304903695279536952795ABE7B4E10E94140766
S11304A0AC01569547959A01ADECBCEC0E9414073B
S11304B09695879596958795969587959C01220F95
S11304C0331F880F991F880F991F880F991F820F58
S11304D0931F9A01281B390BC901805D0E945403A4
S11304E09801ADECBCEC0E941407EC01D695C795BD
S11304F0D695C795D695C7959E010E9414079695E3
S1130500879596958795969587959C01220F331F1D
S1130510880F991F880F991F880F991F820F931FA7
S11305209E01281B390BC901805D0E945403CE0132
S1130530880F991FCC0FDD1FCC0FDD1FCC0FDD1FE3
S1130540C80FD91FC8018C1B9D0B805D0E945403EA
S1130550DF91CF911F910F91FF90EF9008955D98D7
S1130560599A589A589827E030E090E0AC01022E4E
S113057002C0559547950A94E2F740FF02C0599A84
S113058001C05998589A58982150310978F75D9AC2
S113059008955D985998589A589827E030E090E06B
S11305A0AC01022E02C0559547950A94E2F740FF2C
S11305B002C0599A01C05998589A58982150310943
S11305C078F75D9A08958AB183668AB958985E98D7
S11305D083ED90E30197F1F700C000005E9A5D9807
S11305E089EF90E00197F1F700C000005D9A89EF70
S11305F090E00197F1F700C000008FE20E94C90269
S113060080E90E94C90286EA0E94C90284EA0E9423
S1130610C9028FEA0E94C90280E40E94C90280EBE9
S11306200E94C90280E10E94C90280E00E94C902BE
S11306300895CF93C82F80EB860F0E94C9028C2F98
S11306408F7782958F7080610E94C9028C2F8F7082
S11306500E94C902CF910895CF93DF9360E080E0B8
S11306600E941903D9E007C080E00E94AF02C15084
S1130670D9F7D15011F0C1E6F7CFDF91CF910895AA
S1130680CF93DF9360E080E00E941903D9E007C0B4
S11306908FEF0E94AF02C150D9F7D15011F0C0E6DC
S11306A0F7CFDF91CF9108950F931F93CF93DF93EB
S11306B090E0EC01CC0FDD1FC80FD91FCC0FDD1F5C
S11306C0C958DE4F01968C01000F111F800F911F36
S11306D08C01000F111F09581E4F89910E94AF020F
S11306E0C017D107D1F7DF91CF911F910F910895D2
S11306F00F931F93CF93DF93FC0101900020E9F740
S11307003197E81BF90B1E161F0654F4EC018C01FB
S11307100E0F1F1F89910E945403C017D107D1F7F0
S1130720DF91CF911F910F910895CF93DF9385E0CF
S11307300E945B00EC0184E00E945B00BC01CE01DE
S11307400E94AE01DF91CF9108950F931F93CF9331
S1130750DF93D82FCFE000E010E08D2F0E945B00E4
S1130760080F191FC150C9F79801A9E8B8E80E94F9
S11307701407DC01B695A795B695A795B695A795E8
S113078024E630E00E9423072FEF33E040E050E0FE
S11307900E94F50684E690E0821B930BDF91CF91D3
S11307A01F910F91089587EA91E60197F1F700C030
S11307B000000E94530083ED90E30197F1F700C01D
S11307C000000E94690483ED90E30197F1F700C0F3
S11307D000000E94BA0683ED90E30197F1F700C090
S11307E000000E94E30283ED90E30197F1F700C05B
S11307F000000E9440039FE926E881E091502040D8
S11308008040E1F700C000000E942C0383ED90E3D8
S11308100197F1F700C000000E946F000E9474016C
S11308207894089510927907109278070E94D30360
S1130830E6E8F0E020813181ADECBCEC0E941407C5
S1130840929582958F7089279F7089278254910988
S11308509093890080938800808191819C01220F6C
S1130860331F880F991F880F991F880F991F280F0E
S1130870391FA1E6B6EF0E941407880F892F881F3D
S1130880990B9195889790938B0080938A000E948E
S11308908B0481E0809379078091790790917807A0
S11308A0981759F0809378070E94C10483E294EF6B
S11308B00197F1F700C000007894809178078230A6
S11308C029F0833049F70E94DE04E6CF0E949503A5
S11308D0E3CF84B1866084B985EB99E09093870077
S11308E080938600109289001092880010928B00E9
S11308F010928A00A0E8B0E08C918F758C93E1E8A7
S1130900F0E08081826080838C9182608C9380810E
S1130910886180830895E0E8F0E08081806A8083C4
S113092008958FE493EC0197F1F700C000000E9452
S11309302C030E946F000E94740108958FE493ECCD
S11309400197F1F700C000000E942C030E946F0081
S11309500E948D0108958FE493EC0197F1F700C094
S113096000000E942C030E946F000E9480009FE9F7
S113097026E881E0915020408040E1F700C000006B
S11309800895CF93C82F0E942C03C23051F0C33076
S113099071F0C13089F481E0809379070E94910459
S11309A00BC082E0809379070E949E0405C083E017
S11309B0809379070E94AB04CF910895CF93DF937E
S11309C080E00E94A50390938D0780938C0781E0BB
S11309D00E94A50390937F0780937E0782E00E9484
S11309E0A503909389078093880783E00E94A50359
S11309F0909381078093800760918C0770918D0795
S1130A0080E00E94990060917E0770917F0781E0E9
S1130A100E949900609188077091890782E00E9482
S1130A209900609180077091810783E00E9499008A
S1130A30E0918C07F0918D0760917E0770917F079C
S1130A40AF01460F571F5595479550938B07409319
S1130A508A072091880730918907809180079091B7
S1130A608107A901480F591F5595479550937B0756
S1130A7040937A072E0F3F1F3595279530937D07B6
S1130A8020937C07860F971F9595879590938707EA
S1130A908093860762E08AE20E94190380918A07A4
S1130AA090918B07CAE0D0E0BE010E94E106CB0121
S1130AB0BE010E94E106805D0E94540380918A0772
S1130AC090918B07BE010E94E106805D0E94540351
S1130AD066E08AE20E94190380917A0790917B076D
S1130AE0BE010E94E106CB01BE010E94E106805DC9
S1130AF00E94540380917A0790917B07BE010E9463
S1130B00E106805D0E94540364E086E00E941903BC
S1130B1080917C0790917D07BE010E94E106CB0184
S1130B20BE010E94E106805D0E94540380917C070F
S1130B3090917D07BE010E94E106805D0E945403EE
S1130B4064E08EE40E9419038091860790918707E0
S1130B50BE010E94E106CB01BE010E94E106805D58
S1130B600E9454038091860790918707BE010E94DA
S1130B70E106805D0E94540380918A0790918B075F
S1130B8020917A0730917B07821B930B9093830704
S1130B908093820720917C0730917D0740918607DE
S1130BA050918707241B350B3093850720938407C6
S1130BB09C01992324F422273327281B390B233043
S1130BC0310564F0E8E8F0E0208131816AE070E00A
S1130BD00E94E106261B370B318320838091840712
S1130BE0909185079C01992324F422273327281BFD
S1130BF0390B2330310564F0EAE8F0E020813181DB
S1130C006AE070E00E94E106261B370B31832083E3
S1130C10409188005091890020918600309187008E
S1130C20ADECBCEC0E941407969587959695879534
S1130C30969587950F968417950788F420918600DA
S1130C40309187000E94140796958795969587950D
S1130C50969587950F96909389008093880040918C
S1130C608800509189002091860030918700ADEC76
S1130C70BCEC0E941407929582958F7089279F700F
S1130C808927825491094817590790F420918600C6
S1130C90309187000E941407929582958F7089275E
S1130CA09F708927825491099093890080938800CA
S1130CB040918A0050918B002091860030918700EA
S1130CC0ADECBCEC0E941407969587959695879594
S1130CD09695879505968417950788F42091860044
S1130CE0309187000E94140796958795969587956D
S1130CF096958795059690938B0080938A004091F2
S1130D008A0050918B002091860030918700ADECD1
S1130D10BCEC0E941407929582958F7089279F706E
S1130D208927825491094817590790F42091860025
S1130D30309187000E941407929582958F708927BD
S1130D409F7089278254910990938B0080938A0025
S1130D5083ED90E30197F1F700C00000DF91CF919C
S1130D60089552985A9AE9E6F0E080818C7F808356
S1130D70E89A08950E94B10608951F920F920FB643
S1130D800F9211248F93F89480917907823041F067
S1130D90833051F0813061F482E0809379070BC095
S1130DA083E08093790707C081E08093790703C0CB
S1130DB081E0809379078F910F900FBE0F901F9061
S1130DC0189597FB072E16F4009407D077FD09D0E9
S1130DD00E942A0707FC05D03EF4909581959F4F09
S1130DE00895709561957F4F0895052E97FB1EF425
S1130DF000940E940C0757FD07D00E943E0707FC91
S1130E0003D04EF40C940C075095409530952195E1
S1130E103F4F4F4F5F4F0895909580957095619522
S1130E207F4F8F4F9F4F0895A29FB001B39FC00182
S1130E30A39F700D811D1124911DB29F700D811D02
S1130E401124911D08950E941407B7FF0895821B71
S1130E50930B0895AA1BBB1B51E107C0AA1FBB1F1C
S1130E60A617B70710F0A61BB70B881F991F5A9532
S1130E70A9F780959095BC01CD010895A1E21A2EA1
S1130E80AA1BBB1BFD010DC0AA1FBB1FEE1FFF1F2A
S1130E90A217B307E407F50720F0A21BB30BE40B7A
S1130EA0F50B661F771F881F991F1A9469F76095C1
S1130EB07095809590959B01AC01BD01CF0108957B
S1070EC0F894FFCFD0
S1130EC44175746F547261636B696E67204C44524C
S1130ED400202053636F7270696F6E49505800206C
S1130EE42020202020207C7C003D3D3D3D3D3D3D97
S1130EF43D3D3D3D3D3D3D3D3D002D2073797374A5
S1130F04656D20697320696E200049444C45206D49
S1130F146F646500676F696E6720746F20736C6516
S1130F246570004D414E55414C206D6F6465004A17
S1130F34583A004A593A00000000000000006418BE
S1130F44046418003C4040207C000C3040300C0009
S1130F543C4030403C00003E1C080000041E1F1EA0
S1130F640400103C7C3C100020403E01020022148A
S1130F74081422000038283800000010381000003B
S1130F840000100000000878080000000015150A8D
S1130F9400007F7F0909010010207F01010004047F
S1130FA400011F000019151200004060504844005D
S1130FB40609090600000F020101000000011F01D7
S1130FC4000044444A4A510014741C171400514A42
S1130FD44A444400000004040400007C54544400C3
S1130FE408082A1C08007C007C447C0004027F025C
S1130FF4040010207F201000000000000000000006
S11310046F000000000700070000147F147F140021
S11310140007041E000023130864620036495620A6
S11310245000000007000000001C224100000041A1
S1131034221C000014083E08140008083E08080096
S11310440050300000000808080808000060600030
S113105400002010080402003E5149453E000042AD
S11310647F4000004261514946002141454B310013
S11310741814127F10002745454539003C4A494954
S1131084300001710905030036494949360006490F
S113109449291E00003636000000005636000000C0
S11310A408142241000014141414140000412214DE
S11310B408000201510906003E415D494E007E09C3
S11310C409097E007F49494936003E4141412200D5
S11310D47F4141413E007F49494941007F09090953
S11310E401003E4149497A007F0808087F00004115
S11310F47F4100002040413F01007F081422410049
S11311047F40404040007F020C027F007F040810AF
S11311147F003E4141413E007F09090906003E41EA
S113112451215E007F091929460046494949310085
S113113401017F0101003F4040403F000F30403037
S11311440F003F4030403F00631408146300070855
S1131154700807006151494543003C4A49291E006F
S113116402040810200000417F0000000402010270
S113117404004040404040000000030400002054A8
S1131184545478007F48444438003844444420008C
S1131194384444487F00385454541800087E0901E4
S11311A402000C5252523E007F08040478000044AA
S11311B47D4000002040443D0000007F102844008E
S11311C400417F4000007C04180478007C08040477
S11311D478003844444438007C1414140800081477
S11311E414187C007C080404080048545454200057
S11311F4043F444020003C4040207C001C2040200C
S11312041C003C4030403C004428102844000C504E
S113121450503C004464544C44000008364141009E
S113122400007F0000004141360800000402040865
S113123404007F6B6B6B7F00007C447C000000081F
S11312447C0000000064544800000044542800005A
S1131254001C10780000005C5424000000785474CE
S113126400000064140C0000007C547C0000005C4A
S1131274543C000078242625780078252624780018
S1131284702A292A7000782524257800205456557C
S11312947800205556547800205655567800205529
S11312A4545578007C54565544007C555654440097
S11312B47C56555644007C55545544003854565570
S11312C418003855565418003856555618003855D1
S11312D45455180000447E45000000457E44000037
S11312E400467D46000000457C45000000487A41E4
S11312F4000000497A400000004A79420000004995
S1131304784100003844464538003845464438009E
S113131438464546380038454445380030484A493B
S1131324300030494A483000304A494A3000304994
S1131334484930003C4042413C003C4142403C006E
S11313443C4241423C003C4140413C003C4042213F
S11313547C003C4142207C003842412278003C41DC
S113136440217C004E5171110A0058646424100019
S11313747C0A11227D007812090A7100000004021B
S113138401000102040000000002000200003048D1
S11313944540200000007B000000384444384400E9
S11313A4403E49493600080408700C006050485017
S11313B46000205255593000385454540000000041
S11313C47F4100004022141860007C20201C20006F
S11313D4443C047C4400403C12120C0041635549D3
S11313E441003844443C040008043C4424000814E8
S11313F47F1408004E7101714E00452911294500DE
S11314040D5151513D00000005020500400040000B
S1131414400000081C3E00001C1C1C00000000705E
S113142408070000000808080000001D1517000044
S11314340007050700000011150A00000000000061
S11314440000043C412000007C16151608002116F7
S1131454083442007F091D01030038545414080061
S113146400007C4040007F0E1C387F0041225D2236
S11314741C001C3E1C0800007F7F7F7F7F00777B5D
S1131484017B77007F4375437F007F6F55437F0063
S113149440404040400044425F424400405E455E58
S11314A440004048555E4000000408102000030733
S11314B40E1C38000103070F1F007C787060400085
S11314C408081C221C00001C221C00000200080046
S11314D42000043E3F3E0400103E7E3E1000552A88
S11314E4552A5500242A7F2A1200041E1F1E0400B4
S11314F400000000000000000000000000000000E4
S113150400000000000000000000000000000000D3
S113151400000000000000000000000000000000C3
S113152400000000000000000000000000000000B3
S10B15340000000000000000AB
S9030000FC
