S013000053756E547261636B696E672E73726563A8
S11300000C9434000C9451000C9451000C94510045
S11300100C9451000C9451000C9451000C94510018
S11300200C9451000C9451000C9451000C94510008
S11300300C9451000C9451000C9451000C945100F8
S11300400C9451000C9451000C9451000C945100E8
S11300500C9451000C9451000C9451000C945100D8
S11300600C9451000C94510011241FBECFEFD8E022
S1130070DEBFCDBF17E0A0E0B1E0EEEFFAE002C0D2
S113008005900D92AA33B107D9F727E0AAE3B7E0A8
S113009001C01D92AE34B207E1F70E94CD020C9468
S11300A07D050C94000017B880E480937C0087E8F9
S11300B080937A000895ECE7F0E09081987F877050
S11300C0892B8083EAE7F0E08081806480838081EB
S11300D086FDFDCF8091780090917900089560E0CD
S11300E080E00E94DE0180E091E00E943D0261E038
S11300F080E00E94DE0181E191E00E943D020895CA
S113010063E080E00E94DE018FE191E00E943D0205
S113011064E080E00E94DE0189E291E00E943D02F9
S113012065E080E00E94DE018FE191E00E943D02E3
S11301300895CF93DF93EB01682F6E7F6D5F81701D
S113014094E2899F802D1124885E0E94DE012AE0BA
S113015030E0CE01B9010E94FE04C82FCB01B901E1
S11301600E94FE04805D0E94190280E38C0F0E94AD
S1130170190267E082E10E94DE01C8E8D0E028812C
S113018039813695279536952795ABE7B4E10E94DA
S1130190310596958795805D0E94190228813981E1
S11301A0ADECBCEC0E943105AC01569547955695D3
S11301B04795569547959A010E94310596958795DE
S11301C096958795969587959C01220F331F880FE6
S11301D0991F880F991F880F991F820F931F9A01E7
S11301E0281B390BC901805D0E941902488159817D
S11301F09A01ADECBCEC0E943105969587959695D5
S11302008795969587959C01220F331F880F991F18
S1130210880F991F880F991F820F931F9A01281B1B
S1130220390BC901805D0E94190267E082E40E94D3
S1130230DE01CAE8D0E028813981369527953695C4
S11302402795ABE7B4E10E94310596958795805DCB
S11302500E94190228813981ADECBCEC0E94310561
S1130260AC015695479556954795569547959A01ED
S11302700E943105969587959695879596958795CD
S11302809C01220F331F880F991F880F991F880F15
S1130290991F820F931F9A01281B390BC901805D96
S11302A00E941902488159819A01ADECBCEC0E946C
S11302B031059695879596958795969587959C0192
S11302C0220F331F880F991F880F991F880F991FBA
S11302D0820F931F9A01281B390BC901805D0E946C
S11302E01902DF91CF9108955A98599A589A5898BB
S11302F027E030E090E0AC01022E02C0559547950E
S11303000A94E2F740FF02C0599A01C05998589ADA
S113031058982150310978F75A9A08955A9859985B
S1130320589A589827E030E090E0AC01022E02C0C1
S1130330559547950A94E2F740FF02C0599A01C0C7
S11303405998589A58982150310978F75A9A08952B
S11303508AB18F608AB958985B9883ED90E30197CE
S1130360F1F700C000005B9A5A9889EF90E001977A
S1130370F1F700C000005A9A89EF90E00197F1F775
S113038000C000008FE20E948E0180E90E948E016D
S113039086EA0E948E0184EA0E948E018FEA0E94FE
S11303A08E0180E40E948E0180EB0E948E0180E128
S11303B00E948E0180E00E948E010895CF93C82F81
S11303C080EB860F0E948E018C2F8F7782958F7021
S11303D080610E948E018C2F8F700E948E01CF91BC
S11303E00895CF93DF9360E080E00E94DE01D9E0BE
S11303F007C080E00E947401C150D9F7D15011F0B8
S1130400C1E6F7CFDF91CF910895CF93DF9360E0FA
S113041080E00E94DE01D9E007C08FEF0E947401E2
S1130420C150D9F7D15011F0C0E6F7CFDF91CF9189
S113043008950F931F93CF93DF9390E0EC01CC0FBB
S1130440DD1FC80FD91FCC0FDD1FC65CDE4F019620
S11304508C01000F111F800F911F8C01000F111FC1
S1130460065C1E4F89910E947401C017D107D1F711
S1130470DF91CF911F910F9108950F931F93CF9305
S1130480DF93FC0101900020E9F73197E81BF90B99
S11304901E161F0654F4EC018C010E0F1F1F8991C8
S11304A00E941902C017D107D1F7DF91CF911F9194
S11304B00F9108950F931F93CF93DF93D82FCFE01D
S11304C000E010E08D2F0E945B00080F191FC1503F
S11304D0C9F79801A9E8B8E80E943105DC01B6958E
S11304E0A795B695A795B695A79524E630E00E9402
S11304F040052FEF33E040E050E00E94120584E60F
S113050090E0821B930BDF91CF911F910F9108957F
S113051087EA91E60197F1F700C000000E945300BA
S113052083ED90E30197F1F700C000000E940903F6
S113053083ED90E30197F1F700C000000E94A80149
S113054083ED90E30197F1F700C000000E940502DB
S11305509FE926E881E0915020408040E1F700C007
S113056000000E94F10183ED90E30197F1F700C0D0
S113057000000E946F009FE622E883E09150204033
S11305808040E1F700C000000E9480008BE792E900
S11305900197F1F700C0000008950E948802E6E880
S11305A0F0E020813181ADECBCEC0E9431059295E4
S11305B082958F7089279F7089278254910990931F
S11305C0890080938800808191819C01220F331FD0
S11305D0880F991F880F991F880F991F280F391F9B
S11305E0A1E6B6EF0E943105880F892F881F990B69
S11305F09195889790938B0080938A000E942B0397
S113060083ED90E30197F1F700C000000E943103ED
S1130610F7CF84B1866084B985EB99E09093870025
S113062080938600109289001092880010928B00AB
S113063010928A00A0E8B0E08C918F758C93E1E869
S1130640F0E08081826080838C9182608C938081D1
S1130650886180830895E0E8F0E08081806A808387
S11306600895CF93DF9380E00E945A0290934D0740
S113067080934C0781E00E945A0290933F07809335
S11306803E0782E00E945A029093490780934807EC
S113069083E00E945A02909341078093400760913F
S11306A04C0770914D0780E00E94990060913E07CD
S11306B070913F0781E00E94990060914807709112
S11306C0490782E00E9499006091400770914107B8
S11306D083E00E949900E0914C07F0914D076091EE
S11306E03E0770913F07AF01460F571F5595479539
S11306F050934B0740934A0720914807309149078C
S11307008091400790914107A901480F591F5595C1
S1130710479550933B0740933A072E0F3F1F35955B
S1130720279530933D0720933C07860F971F959597
S11307308795909347078093460762E08AE20E9478
S1130740DE0180914A0790914B07CAE0D0E0BE01D8
S11307500E94FE04CB01BE010E94FE04805D0E9443
S1130760190280914A0790914B07BE010E94FE0432
S1130770805D0E94190266E08AE20E94DE01809197
S11307803A0790913B07BE010E94FE04CB01BE01D3
S11307900E94FE04805D0E94190280913A079091A4
S11307A03B07BE010E94FE04805D0E94190264E0C2
S11307B086E00E94DE0180913C0790913D07BE01D6
S11307C00E94FE04CB01BE010E94FE04805D0E94D3
S11307D0190280913C0790913D07BE010E94FE04DE
S11307E0805D0E94190264E082E40E94DE0180912F
S11307F0460790914707BE010E94FE04CB01BE014B
S11308000E94FE04805D0E94190280914607909127
S11308104707BE010E94FE04805D0E941902809178
S11308204A0790914B0720913A0730913B07821B6E
S1130830930B909343078093420720913C07309198
S11308403D074091460750914707241B350B3093D1
S11308504507209344079C01992324F42227332736
S1130860281B390B2330310564F0E8E8F0E02081DF
S113087031816AE070E00E94FE04261B370B31834D
S1130880208380914407909145079C01992324F487
S113089022273327281B390B2330310564F0EAE87B
S11308A0F0E0208131816AE070E00E94FE04261BA2
S11308B0370B318320834091880050918900209127
S11308C0860030918700ADECBCEC0E943105969512
S11308D0879596958795969587950F96841795078E
S11308E088F420918600309187000E943105969506
S11308F0879596958795969587950F9690938900F9
S1130900809388004091880050918900209186004E
S113091030918700ADECBCEC0E9431059295829534
S11309208F7089279F708927825491094817590726
S113093090F420918600309187000E9431059295B1
S113094082958F7089279F7089278254910990938B
S113095089008093880040918A0050918B002091F7
S1130960860030918700ADECBCEC0E943105969571
S113097087959695879596958795059684179507F7
S113098088F420918600309187000E943105969565
S113099087959695879596958795059690938B0060
S11309A080938A0040918A0050918B0020918600A8
S11309B030918700ADECBCEC0E9431059295829594
S11309C08F7089279F708927825491094817590786
S11309D090F420918600309187000E943105929511
S11309E082958F7089279F708927825491099093EB
S11309F08B0080938A00DF91CF91089597FB072E97
S1130A0016F4009407D077FD09D00E94470507FC2F
S1130A1005D03EF4909581959F4F0895709561950A
S1130A207F4F0895052E97FB1EF400940E9429051C
S1130A3057FD07D00E945B0507FC03D04EF40C94CD
S1130A40290550954095309521953F4F4F4F5F4F65
S1130A50089590958095709561957F4F8F4F9F4F26
S1130A600895A29FB001B39FC001A39F700D811D83
S1130A701124911DB29F700D811D1124911D0895A3
S1130A800E943105B7FF0895821B930B0895AA1B9A
S1130A90BB1B51E107C0AA1FBB1FA617B70710F065
S1130AA0A61BB70B881F991F5A95A9F78095909597
S1130AB0BC01CD010895A1E21A2EAA1BBB1BFD01A6
S1130AC00DC0AA1FBB1FEE1FFF1FA217B307E40729
S1130AD0F50720F0A21BB30BE40BF50B661F771F81
S1130AE0881F991F1A9469F7609570958095909561
S1110AF09B01AC01BD01CF010895F894FFCF26
S1130AFE4175746F547261636B696E67204C445216
S1130B0E00202053636F7270696F6E495058002035
S1130B1E2020202020207C7C003D3D3D3D3D3D3D60
S1130B2E3D3D3D3D3D3D3D3D3D000000000000008E
S1130B3E006418046418003C4040207C000C3040D3
S1130B4E300C003C4030403C00003E1C08000004C9
S1130B5E1E1F1E0400103C7C3C100020403E01026F
S1130B6E002214081422000038283800000010381F
S1130B7E10000000001000000008780800000000BB
S1130B8E15150A00007F7F0909010010207F01015D
S1130B9E00040400011F00001915120000406050EB
S1130BAE4844000609090600000F02010100000076
S1130BBE011F01000044444A4A510014741C1714C6
S1130BCE00514A4A444400000004040400007C54CA
S1130BDE54440008082A1C08007C007C447C000451
S1130BEE027F02040010207F20100000000000008D
S1130BFE0000006F000000000700070000147F14BF
S1130C0E7F14000007041E000023130864620036DC
S1130C1E4956205000000007000000001C2241002D
S1130C2E000041221C000014083E08140008083E6F
S1130C3E08080000503000000008080808080000EA
S1130C4E60600000002010080402003E5149453E39
S1130C5E0000427F40000042615149460021414557
S1130C6E4B31001814127F10002745454539003CBE
S1130C7E4A4949300001710905030036494949368C
S1130C8E00064949291E000036360000000056367B
S1130C9E000000081422410000141414141400005F
S1130CAE41221408000201510906003E415D494EDD
S1130CBE007E0909097E007F49494936003E4141BB
S1130CCE4122007F4141413E007F49494941007F15
S1130CDE09090901003E4149497A007F0808087F45
S1130CEE0000417F4100002040413F01007F081475
S1130CFE2241007F40404040007F020C027F007F73
S1130D0E0408107F003E4141413E007F0909090657
S1130D1E003E4151215E007F09192946004649498A
S1130D2E49310001017F0101003F4040403F000F67
S1130D3E3040300F003F4030403F006314081463CE
S1130D4E000708700807006151494543003C4A49B1
S1130D5E291E0002040810200000417F0000000438
S1130D6E0201020400404040404000000003040021
S1130D7E002054545478007F484444380038444486
S1130D8E442000384444487F003854545418000812
S1130D9E7E090102000C5252523E007F0804047870
S1130DAE0000447D4000002040443D0000007F10C0
S1130DBE28440000417F4000007C04180478007C25
S1130DCE08040478003844444438007C141414088D
S1130DDE00081414187C007C0804040800485454B9
S1130DEE542000043F444020003C4040207C001C22
S1130DFE2040201C003C4030403C00442810284435
S1130E0E000C5050503C004464544C4400000836CE
S1130E1E41410000007F00000041413608000004FB
S1130E2E02040804007F6B6B6B7F00007C447C0023
S1130E3E0000087C00000000645448000000445484
S1130E4E280000001C10780000005C5424000000F0
S1130E5E78547400000064140C0000007C547C0070
S1130E6E00005C543C000078242625780078252662
S1130E7E247800702A292A700078252425780020E9
S1130E8E54565578002055565478002056555678A9
S1130E9E002055545578007C54565544007C5556C4
S1130EAE5444007C56555644007C555455440038E1
S1130EBE5456551800385556541800385655561869
S1130ECE0038555455180000447E45000000457EF8
S1130EDE44000000467D46000000457C45000000AD
S1130EEE487A41000000497A400000004A794200E5
S1130EFE00004978410000384446453800384546DC
S1130F0E44380038464546380038454445380030A4
S1130F1E484A49300030494A483000304A494A303C
S1130F2E003049484930003C4042413C003C41427B
S1130F3E403C003C4241423C003C4140413C003C70
S1130F4E4042217C003C4142207C003842412278C0
S1130F5E003C4140217C004E5171110A00586464DA
S1130F6E2410007C0A11227D007812090A710000F7
S1130F7E000402010001020400000000020002004D
S1130F8E0030484540200000007B000000384444F7
S1130F9E384400403E49493600080408700C00608D
S1130FAE5048506000205255593000385454540063
S1130FBE0000007F4100004022141860007C2020B5
S1130FCE1C2000443C047C4400403C12120C0041A2
S1130FDE63554941003844443C040008043C44240D
S1130FEE0008147F1408004E7101714E004529113A
S1130FFE2945000D5151513D0000000502050040E8
S113100E004000400000081C3E00001C1C1C000098
S113101E00007008070000000808080000001D15F5
S113102E1700000007050700000011150A00000054
S113103E0000000000043C412000007C1615160838
S113104E002116083442007F091D01030038545450
S113105E14080000007C4040007F0E1C387F0041C5
S113106E225D221C001C3E1C0800007F7F7F7F7FB8
S113107E00777B017B77007F4375437F007F6F553D
S113108E437F0040404040400044425F42440040A1
S113109E5E455E40004048555E4000000408102046
S11310AE0003070E1C38000103070F1F007C787025
S11310BE60400008081C221C00001C221C000002B8
S11310CE0008002000043E3F3E0400103E7E3E1009
S11310DE00552A552A5500242A7F2A1200041E1F61
S11310EE1E040000000000000000000000000000CC
S11310FE00000000000000000000000000000000DE
S113110E00000000000000000000000000000000CD
S113111E00000000000000000000000000000000BD
S10D112E00000000000000000000B3
S9030000FC
